:020000040800F2
:1000000018070020CD010008A1030008990300088B
:100010009D03000875020008E50B000800000000C1
:100020000000000000000000000000002D05000896
:1000300079020008000000001504000841060008CD
:10004000E7010008E7010008E7010008E7010008F0
:10005000E7010008E7010008E7010008E7010008E0
:10006000E7010008E7010008E7010008E7010008D0
:10007000E7010008E7010008E7010008E7010008C0
:10008000E7010008E7010008E7010008E7010008B0
:10009000E7010008E7010008E7010008E7010008A0
:1000A000E7010008E7010008E7010008E701000890
:1000B000E7010008E7010008E7010008E701000880
:1000C000E7010008E7010008E7010008E701000870
:1000D000E7010008D1090008E7010008E70100086E
:1000E000E7010008E7010008E7010008E701000850
:1000F000E7010008E7010008E7010008E701000840
:10010000E7010008E7010008E7010008E70100082F
:10011000E7010008E7010008E7010008E70100081F
:10012000E7010008E7010008E7010008E70100080F
:1001300000F002F800F03AF80AA090E8000C8244BF
:100140008344AAF10107DA4501D100F02FF8AFF29C
:10015000090EBAE80F0013F0010F18BFFB1A43F0A5
:1001600001031847AC0F0000CC0F0000103A24BF69
:1001700078C878C1FAD8520724BF30C830C144BF0C
:1001800004680C607047000000230024002500264E
:10019000103A28BF78C1FBD8520728BF30C148BFEA
:1001A0000B6070471FB51FBD10B510BD00F033F8D0
:1001B0001146FFF7F7FF00F09FFD00F051F803B480
:1001C000FFF7F2FF03BC00F04BFD00000948804739
:1001D00009480047FEE7FEE7FEE7FEE7FEE7FEE729
:1001E000FEE7FEE7FEE7FEE704480549054A064B41
:1001F0007047000045060008310100081801002082
:1002000018070020180300201803002070477047CB
:10021000704770477047754600F028F8AE460500F5
:100220006946534620F00700854618B020B5FFF711
:10023000DBFFBDE820404FF000064FF000074FF015
:1002400000084FF0000B21F00701AC46ACE8C009F4
:10025000ACE8C009ACE8C009ACE8C0098D467047FD
:100260000446AFF300802046FFF7A9FF004870471F
:10027000B400002000BFFEE770472DE9F0410246C0
:1002800000250026002000230024002791F803C049
:100290000CF00F0591F803C00CF0100CBCF1000F2E
:1002A00003D091F802C04CEA050591F800C0BCF1FA
:1002B000000F31D0146800202BE04FF0010C0CFA35
:1002C00000F3B1F800C00CEA03069E4220D183007F
:1002D0004FF00F0C0CFA03F7BC4305FA03FC4CEA91
:1002E000040491F803C0BCF1280F06D14FF0010CB3
:1002F0000CFA00FCC2F814C00AE091F803C0BCF18B
:10030000480F05D14FF0010C0CFA00FCC2F810C0E8
:10031000401C0828D1D31460B1F800C0BCF1FF0F15
:1003200034DD546800202EE000F1080C4FF0010885
:1003300008FA0CF3B1F800C00CEA03069E4221D182
:1003400083004FF00F0C0CFA03F7BC4305FA03FCD3
:100350004CEA040491F803C0BCF1280F05D100F168
:10036000080C08FA0CF8C2F8148091F803C0BCF12C
:10037000480F07D100F1080C4FF0010808FA0CF8FB
:10038000C2F81080401C0828CED35460BDE8F0812C
:100390000146886880B2704700BFFEE700BFFEE7F5
:1003A0007047000070B5002100230F22C47804B309
:1003B000154C246804F4E064C4F5E064210AC1F13A
:1003C0000403CA40447804FA03F1847814402143BA
:1003D00009010E4C0678A155047804F01F0501248C
:1003E000AC4005786D11AD0005F1E025C5F8004180
:1003F00009E0047804F01F050124AC40044D0678A0
:10040000761145F8264070BD0CED00E000E400E0F8
:1004100080E100E07047000029B1064AD26902433A
:10042000044BDA6104E0034AD2698243014BDA618A
:10043000704700000010024029B1064A9269024349
:10044000044B9A6104E0034A92698243014B9A612A
:10045000704700000010024030B500210022002447
:1004600000232D4D6D6805F00C0121B1042905D044
:10047000082923D105E0294D056022E0274D0560BC
:100480001FE0254D6D6805F47012234D6D6805F46D
:100490008034022505EB92421CB9214D554305607D
:1004A0000BE01D4D6D6805F400351DB11C4D554325
:1004B000056002E0194D5543056002E0174D0560E7
:1004C00000BF00BF144D6D6805F0F0010909154D1E
:1004D0006B5C0568DD4045600F4D6D6805F4E061BB
:1004E000090A104D6B5C4568DD4085600A4D6D68FA
:1004F00005F46051C90A0B4D6B5C4568DD40C56071
:10050000054D6D6805F44041890B074D6B5CC5686E
:10051000B5FBF3F5056130BD0010024000127A0012
:1005200000093D009E000020AE000020704710B57D
:1005300000F002F810BD00000CB500200190009002
:100540003348006840F480303149086000BF3048CB
:10055000006800F4003000900198401C0190009861
:1005600018B90198B0F5A06FF1D12948006800F4DE
:10057000003010B10120009001E0002000900098B0
:10058000012843D12348006840F010002149086049
:100590000846006820F0030008600846006840F044
:1005A000020008601A4840681949486008464068D7
:1005B00048600846406840F48060486008464068EB
:1005C00020F47C1048600846406840F4E810486019
:1005D0000846006840F08070086000BF0C48006862
:1005E00000F000700028F9D00948406820F00300AE
:1005F000074948600846406840F00200486000BF74
:100600000348406800F00C000828F9D10CBD000038
:100610000010024000200240042808D14FF0E021E1
:10062000096941F004014FF0E022116107E04FF049
:10063000E021096921F004014FF0E02211617047C7
:100640007047000010B51348006840F001001149E0
:10065000086008464068104908400E49486008464E
:1006600000680E4908400B4908600846006820F4FD
:10067000802008600846406820F4FE0048604FF47F
:100680001F008860FFF753FF4FF0006004490860C7
:1006900010BD0000001002400000FFF8FFFFF6FE52
:1006A00008ED00E030B589B005460C460121082070
:1006B000FFF7C2FE01211020FFF7BEFE012102203C
:1006C000FFF7AAFE18208DF8230003208DF82200E2
:1006D0000120ADF8200008A93048FFF7CEFD022028
:1006E000ADF8200008A92D48FFF7C7FD10208DF8B0
:1006F000230003208DF822004FF40070ADF8200095
:1007000008A92748FFF7B9FD4FF48070ADF8200025
:1007100008A92348FFF7B1FD8020ADF8200008A903
:100720001F48FFF7AAFD4020ADF8200008A91C488B
:10073000FFF7A3FDADF81850ADF814400020ADF858
:100740001A00ADF8160005A9164800F0EFF8702061
:10075000ADF804000120ADF806000020ADF80A0055
:100760000220ADF80C0001A90E4800F035F801A9EF
:100770000C4800F08BF808210A4800F07DF80821A9
:10078000084800F0C1F80121064800F00DF80121E9
:10079000044800F015F809B030BD0000000C01401D
:1007A000001001400004004021B1028842F08002A4
:1007B000028004E002884FF67F731A40028070477F
:1007C00021B1028842F00102028004E002884FF663
:1007D000FE731A400280704770B500240022002387
:1007E000058C4FF6FF6635400584028C8388848B28
:1007F0004FF68F752C404FF6FC752C400D882C431E
:100800004FF6FF552A400D894FF6FF7606EA05257B
:100810002A434D8806EA05252A43154DA84202D0F1
:10082000144DA8421DD14FF2FF752A404D894FF655
:10083000FF7606EA05252A434FF6FF352A408D88C4
:1008400006EA05252A434EF6FF752B404DF6FF7547
:100850002B408D8906EA05152B43CD8906EA05153F
:100860002B4383808483CD888587028470BD0000FC
:10087000002C0140003401400A460021818B4FF6D4
:10088000F7731940114381837047000070B500224F
:1008900000230024058C4EF6FF7635400584038C3A
:1008A0008488828B48F6FF752A404FF6FF452A4020
:1008B0000D884FF6FF7606EA05252A434DF6FF75AB
:1008C0002B400D8906EA05352B434D8806EA053590
:1008D0002B430B4DA84202D00A4DA84208D14BF63B
:1008E000FF752C408D894FF6FF7606EA85152C435F
:1008F00084808283CD88A0F84050038470BD0000BE
:10090000002C0140003401400A460021818B4FF247
:10091000FF7319404FF6FF7303EA022319438183E3
:10092000704781877047A0F8401070470022028806
:100930001D4B98420ED01D4B98420BD0B0F1804F0A
:1009400008D01B4B984205D01A4B984202D01A4B44
:10095000984204D14FF68F731A404B881A43174BB5
:10096000984207D0164B984204D04FF6FF431A40E6
:10097000CB881A4302808B8883850B8803850A4BBA
:1009800098420BD0094B984208D00E4B984205D0A4
:100990000D4B984202D00D4B984201D10B7A038641
:1009A0000123838270470000002C01400034014085
:1009B0000004004000080040000C0040001000400F
:1009C0000014004000400140004401400048014044
:1009D00010B540F22551064800F029F838B1044816
:1009E00000F0E0F80349087001200349088010BDB9
:1009F00000380140420000204000002021B18289DF
:100A000042F40052828104E082894DF6FF731A405D
:100A10008281704702460020B1F5007F00D100BFFF
:100A200013880B400BB1012000E00020704770B527
:100A30000246002400230025002040F66A16B14239
:100A400000D100BFC1F3421501F01F03012606FAD1
:100A500003F3012D02D19689334006E0022D02D125
:100A6000168A334001E0968A33400C12012606FABA
:100A700004F41688344013B10CB1012000E00020CA
:100A800070BDF0B50346002400260025002040F686
:100A90006A17B94200D100BF1846C1F3421401F0F1
:100AA0001F06012707FA06F5012C01D10C3004E0DE
:100AB000022C01D1103000E014301AB107682F4326
:100AC000076002E00768AF430760F0BD2DE9F0471B
:100AD00086B005460E460024A24600BFA146002768
:100AE000B08900B100BF2F462C8A4CF6FF7004403D
:100AF000F08804432C82AC894EF6F3100440B08891
:100B000031890843718908430443AC81AC8A4FF6AC
:100B1000FF400440B0890443AC8201A8FFF79CFC6D
:100B20001F48874202D1DDF810A001E0DDF80CA0DB
:100B3000A88900F4004040B10AEBCA0000EB0A109B
:100B400031684900B0FBF1F807E00AEBCA0000EB9E
:100B50000A1031688900B0FBF1F86420B8FBF0F0AE
:100B600004012009642101FB1089A88900F40040D8
:100B700040B1322000EBC900B0FBF1F000F00700FB
:100B8000044308E0322000EB09106421B0FBF1F0CF
:100B900000F00F0004432C8106B0BDE8F087000090
:100BA0000038014001468888C0F308007047C1F34F
:100BB000080282807047000010B504460BE02178DF
:100BC0000748FFF7F4FF641C00BF40210448FFF70B
:100BD00021FF0128F9D120780028F0D110BD0000B4
:100BE0000038014000BFFEE710B51848FFF7E4FFEA
:100BF0004FF4167000F05AF81548FFF7DDFF4FF478
:100C00007A7000F053F84FF47A7000F04FF84FF418
:100C10007A7000F04BF84FF47A7000F047F80D4806
:100C2000FFF7CAFF4FF4167000F040F80A48FFF7CC
:100C3000C3FF4FF4167000F039F80848FFF7BCFF07
:100C40004FF4167000F032F810BD00004300002091
:100C5000510000205A000020820000209100002056
:100C6000014600BF7047000010B56FF00400FFF7A9
:100C7000D3FC0A4800680A49B0FBF1F00949087042
:100C80000846007800EB4001C1EBC0104FF6FF7141
:100C900001EAC0000449088010BD000020000020C7
:100CA00000127A0034000020360000200146114A6C
:100CB00012884A434FF0E0235A6100229A611A4693
:100CC000126942F001021A6100BF4FF0E022106980
:100CD00000F001021AB100F48032002AF5D04FF082
:100CE000E022126922F001024FF0E0231A61002293
:100CF0009A61704736000020FFF7B6FF4FF4165098
:100D000000F0B6F94FF4FA70FFF7D0FF002140F27F
:100D10008330FFF7C7FCFFF767FF2DE19748008896
:100D200001287DD19648FFF73DFF964908700020C5
:100D300092490880934801789148FFF738FF91481D
:100D40000078322848D004DC302807D031287FD101
:100D500026E0332853D053287AD16FE04FF4C37084
:100D6000894908604FF4E1708849086088488949DA
:100D700008604FF402708849086085484638874902
:100D800008604FF416708649086081489638854996
:100D9000086001208449087000207A4908705DE0ED
:100DA0004FF4E171484200F003F94FF41670FFF779
:100DB0007DFF4FF4E171084600F0FAF84FF47A70C5
:100DC000FFF774FF0021084600F0F2F80020764992
:100DD00008706C49087041E04FF4E171084600F07A
:100DE000E7F84FF47A70FFF761FF0021084600F042
:100DF000DFF800206C490870624908702EE06449F1
:100E00003239484200F0D4F84FF41670FFF74EFF25
:100E10004FF4E171084600F0CBF84FF47A7001E02E
:100E20001DE015E0FFF742FF0021084600F0C0F882
:100E300000205D490870534908700FE00021084602
:100E400000F0B6F80020584908704E49087005E0D7
:100E50000020554908704B49087000BF00BF524838
:100E6000007801286FD15148FFF792FA00F0F000A6
:100E700000F00F01002979D100110D2876D2DFE8AA
:100E800000F0071E0D2F407575755175757564005E
:100E90003D480168006800F08BF86CE000210846CE
:100EA00000F086F80220FFF701FF3A480168374852
:100EB000006800F07DF81920FFF7F8FE5BE00021E4
:100EC000084600F075F80220FFF7F0FE354801688B
:100ED0003348006800F06CF82820FFF7E7FE4AE08E
:100EE0000021084600F064F80220FFF7DFFE2B48DF
:100EF00001682948006800F05BF81E20FFF7D6FE65
:100F000039E00021084600F053F80220FFF7CEFE3A
:100F10001E4801681F48006800F04AF81920FFF7D2
:100F2000C5FE28E00021084600F042F80220FFF745
:100F3000BDFE1B4801681B48006800F039F82820F6
:100F4000FFF7B4FE17E017E010E00021084600F0BC
:100F50002FF80220FFF7AAFE0F4801680F4800682B
:100F600000F026F81E20FFF7A1FE04E008494842E1
:100F700000F01EF800BF00BFD0E6000040000020D7
:100F8000003801400100002004000020080000207B
:100F900070FEFFFF0C000020100000201400002055
:100FA000180000201C000020000000200008014064
:100FB00070B504460D46002C11DB002D0FDB01201F
:100FC0002849086000202849C1F8A00101202549CE
:100FD0000839086000202449C1F8980138E0002C45
:100FE00011DD002D0FDA01201E49086000201E4986
:100FF000C1F8A0011B490839086001201A49C1F84D
:1010000098016D4224E0002C11DA002D0FDD002044
:101010001449086001201449C1F8A0011149083998
:10102000086000201049C1F89801644210E00020D7
:101030000C49086001200C49C1F8A00100200949B1
:101040000839086001200849C1F898016D426442DE
:10105000A1B20648FFF765FCA9B20448FFF763FC9C
:1010600070BD0000A40122420000224200040040A2
:1010700010B586B00446012144F20400FFF7DCF904
:101080004FF40070ADF8140003208DF816001820FE
:101090008DF8170005A91C48FFF7EFF84FF48060A2
:1010A000ADF8140004208DF8170005A91648FFF7C5
:1010B000E4F825208DF8000003208DF801008DF85C
:1010C000020001208DF803006846FFF76BF90194D8
:1010D0000020ADF80800ADF80A00ADF80C00ADF83E
:1010E00010000C20ADF80E0001A90848FFF7EEFC37
:1010F000012240F225510548FFF7C3FC01210348B6
:10110000FFF77CFC06B010BD00080140003801402C
:101110003011000800000020B40000006C0100083D
:10112000E4110008B40000206406000088010008F3
:1011300000000000000000000000000000000000AF
:10114000000000000000000000000000000000009F
:1011500000A24A0400000000000000000102030495
:101160000607080900000000000000000000000061
:1011700000000041542B43574D4F44453D330D0A69
:101180000041542B5253540D0A0041542B434950F3
:1011900053544152543D22544350222C223139326F
:1011A0002E3136382E312E313031222C3636360D56
:1011B0000A0041542B4349504D4F44453D310D0ADF
:1011C0000041542B43495053454E440D0A00000042
:1011D00000000102030401020304060708090204D7
:0411E00006080000FD
:0400000508000131BD
:00000001FF
