:020000040800F2
:10000000E8250020E10100082D4E0008D90A00086B
:10001000294E000861080008C755000800000000CC
:100020000000000000000000000000002D5000084B
:100030006508000800000000B54E000841510008A6
:10004000FB010008FB010008FB010008FB010008A0
:10005000FB010008FB010008FB010008FB01000890
:10006000FB010008FB010008FB010008FB01000880
:10007000FB010008FB010008FB010008FB01000870
:10008000FB010008FB010008FB010008FB01000860
:10009000FB010008FB010008FB010008FB01000850
:1000A000FB010008FB010008FB010008FB01000840
:1000B000FB010008A5510008FB010008FB01000836
:1000C000FB010008FB010008FB010008FB01000820
:1000D000FB0100081D530008FB01000849530008FC
:1000E000FB010008FB010008FB010008FB01000800
:1000F000FB010008FB010008FB010008FB010008F0
:10010000FB010008FB010008FB010008FB010008DF
:10011000FB010008FB010008FB010008FB010008CF
:10012000FB010008FB010008FB010008FB010008BF
:1001300000F002F800F045F80AA090E8000C8244B4
:100140008344AAF10107DA4501D100F03AF8AFF291
:10015000090EBAE80F0013F0010F18BFFB1A43F0A5
:1001600001031847F090000010910000103A24BFDE
:1001700078C878C1FAD8520724BF30C830C144BF0C
:1001800004680C607047000000230024002500264E
:10019000103A28BF78C1FBD8520728BF30C148BFEA
:1001A0000B607047642900F09980782900F0D280B4
:1001B000632900F0C382002070471FB51FBD10B532
:1001C00010BD00F01DFB1146FFF7F7FF06F0C8FE5B
:1001D00000F03BFB03B4FFF7F2FF03BC05F0FCF9B2
:1001E0000948804709480047FEE7FEE7FEE7FEE7CB
:1001F000FEE7FEE7FEE7FEE7FEE7FEE70448054907
:10020000054A064B704700004551000831010008BF
:10021000E8130020E8250020E8150020E81500205C
:10022000704700000FB4044910B503AA029800F00B
:1002300091FA10BC5DF814FB2800002070B504464C
:1002400085690068C10601D5302600E02026C00778
:1002500007D070BDD4E9012130469047206A401C88
:1002600020626D1EF6D570BD70B5044685690078B4
:10027000C00707D170BDD4E9012120209047206A32
:10028000401C20626D1EF6D570BD70B50C4605464B
:10029000012A05D02878800600D5EA69002302E00B
:1002A000012305E05B1C934202D2E05C0028F9D1F7
:1002B000A869E618C01AA861286A18442862284666
:1002C000FFF7BCFF04E0D5E9012114F8010B9047CA
:1002D000B442F8D32846FFF7C7FF70BD2DE9F041BF
:1002E0000646002410687529314616A510D0AFF3D4
:1002F0000080002802DA404213A507E031688A072F
:1003000001D512A502E0490704D511A5012401E099
:10031000AFF3008000210A2206F1240709E0B0FBB8
:10032000F2FCB0FBF2F302FB1C00303078541846AC
:10033000491C0028F3D123462A463046BDE8F04147
:1003400000F099B9000000002D0000002B00000013
:100350002000000070B504460D4621461068AFF33A
:1003600000802188090502D50F4A7A4402E00E4A2E
:100370007A440E32002104F1240305E000F00F0658
:100380000009965D5E54491C0028F7D120780023AF
:10039000000704D5702D02D009B102231132204686
:1003A000BDE8704000F067B9668E00002DE9F05F8F
:1003B000894604464FF0000ADFF824B1FB44C0F838
:1003C00020A02046E168884700287DD0252806D057
:1003D000D4E901219047206A401C2062F1E7002502
:1003E0005F462046E16888472028064607DB312E15
:1003F00005D2B81910F8200C08B10543F1E7A80799
:1004000001D525F00405C4F81CA00027C4F818A0E5
:100410002A2E09D0304605F0D8F838B304EB870807
:10042000303EC8F8186019E059F8041B204604EB68
:1004300087029161E1688847012F064618D1E0697B
:10044000002820DA25F020051DE0D8F8180000EB80
:10045000800006EB40003038C8F818002046E168FC
:100460008847064605F0B1F80028EED1012F0AD0E2
:100470002E2E08D12046E16888477F1C0646022FB1
:1004800045F02005C4DBA069002803DA404245F0AE
:100490000105A061E80701D025F01005A6B1A6F17D
:1004A0004100192802D8203645F400654A463146F5
:1004B000204625604D46FFF775FE60B1012807D044
:1004C000ED1D25F0070000E007E000F1080978E7DE
:1004D00005F1040975E730467AE7206ABDE8F09F28
:1004E0003C8E000040EA010310B59B070FD1042A9F
:1004F0000DD310C808C9121F9C42F8D020BA19BAEF
:10050000884201D9012010BD4FF0FF3010BD1AB153
:10051000D30703D0521C07E0002010BD10F8013BA8
:1005200011F8014B1B1B07D110F8013B11F8014BCF
:100530001B1B01D1921EF1D1184610BD032A40F2B7
:10054000308010F0030C00F0158011F8013BBCF175
:10055000020F624498BF11F801CB00F8013B38BF8D
:1005600011F8013BA2F1040298BF00F801CB38BF9B
:1005700000F8013B11F0030300F02580083AC0F0B9
:10058000088051F8043B083A51F804CBA0E8081061
:10059000F5E7121D5CBF51F8043B40F8043BAFF394
:1005A0000080D20724BF11F8013B11F801CB48BFEE
:1005B00011F8012B24BF00F8013B00F801CB48BF24
:1005C00000F8012B704710B5203AC0F00B80B1E85D
:1005D0001850203AA0E81850B1E81850A0E8185078
:1005E000BFF4F5AF5FEA027C24BFB1E81850A0E881
:1005F000185044BF18C918C0BDE810405FEA827C9B
:1006000024BF51F8043B40F8043B08BF7047D207B1
:1006100028BF31F8023B48BF11F8012B28BF20F852
:10062000023B48BF00F8012B70474FF0000204293D
:10063000C0F0128010F0030C00F0A080CCF1040C8C
:10064000BCF1020F18BF00F8012BA8BF20F8022B45
:10065000A1EB0C0100F092B85FEAC17C24BF00F866
:10066000012B00F8012B48BF00F8012B70477047A1
:100670007047704770472DE9F0470D4699469246FE
:10068000044600F124080168880604D5E06921F0D9
:100690001001216000E00120A84201DD471B00E0BD
:1006A0000027A1697A1902EB0900081AA0612078D5
:1006B000C00602D42046FFF7C1FD002608E0D4E9B9
:1006C00001211AF806009047206A401C761C20621F
:1006D0004E45F4DB2078C0060AD52046FFF7AEFD74
:1006E00006E0D4E9012130209047206A401C2062B6
:1006F000381EA7F10107F4DC07E0D4E9012118F85E
:1007000005009047206A401C2062281EA5F10105C3
:10071000F3DC2046FFF7A8FD2078000602D5022072
:10072000BDE8F0870120FBE710B5436913B1AFF3D3
:10073000008001E0FFF7A9FD012010BD127800F153
:1007400024010A7000224A700122EDE711684FF07F
:10075000FF32E9E7074B70B50D467B4400F039F8EE
:100760000446284600F048F810B14FF0FF3070BD45
:10077000204670BD5B4F00004FF0000200B51346ED
:1007800094469646203922BFA0E80C50A0E80C50B1
:10079000B1F12001BFF4F7AF090728BFA0E80C5062
:1007A00048BF0CC05DF804EB890028BF40F8042B5B
:1007B00008BF704748BF20F8022B11F0804F18BFC8
:1007C00000F8012B7047000001694A1C026108789B
:1007D000704700B58FB0CDE9013100210591054981
:1007E0007944CDE9031011466846FFF7DFFD0FB0ED
:1007F00000BD0000E5FFFFFF007B00F080007047B8
:10080000754600F029F8AE4605006946534620F0CB
:100810000700854618B020B5FFF7F0FCBDE8204082
:100820004FF000064FF000074FF000084FF0000BAC
:1008300021F00701AC46ACE8C009ACE8C009ACE85F
:10084000C009ACE8C0098D4670470446AFF300808C
:100850002046FFF7BFFC00000048704788130020C7
:1008600000BFFEE77047000051B18200A2F1C04214
:10087000126842F001038200A2F1C042136009E055
:100880008200A2F1C0421268034B1A408300A3F118
:10089000C0431A6070470000FEFF0F00D0E901124C
:1008A0001143C268114302691143426911438269CD
:1008B0001143C2691143026A1143426A1143826AB9
:1008C0001143C26A1143026B114302689200A2F104
:1008D000C0421160816808290BD101688900A1F12B
:1008E000C041096841F0400201688900A1F1C0419E
:1008F0000A60416B0968426B526841EA0211426B1F
:10090000926841EA0221426B928941EA0241426BBC
:10091000128A41EA0251426B127D41EA0261426B46
:10092000926911430268521C9200A2F1C042116008
:10093000C16AB1F5804F1BD1816B0968826B526827
:1009400041EA0211826B926841EA0221826B128AAB
:1009500041EA0251826B127D41EA0261826B926927
:10096000114302689200A2F1C042C2F8041107E0EC
:100970006FF0704201688900A1F1C041C1F8042103
:1009800070472DE9F0410246002500260020002393
:100990000024002791F803C00CF00F0591F803C064
:1009A0000CF0100CBCF1000F03D091F802C04CEA1F
:1009B000050591F800C0BCF1000F31D0146800208B
:1009C0002BE04FF0010C0CFA00F3B1F800C00CEA78
:1009D00003069E4220D183004FF00F0C0CFA03F760
:1009E000BC4305FA03FC4CEA040491F803C0BCF1D3
:1009F000280F06D14FF0010C0CFA00FCC2F814C00D
:100A00000AE091F803C0BCF1480F05D14FF0010C8A
:100A10000CFA00FCC2F810C0401C0828D1D31460A6
:100A2000B1F800C0BCF1FF0F34DD546800202EE0A7
:100A300000F1080C4FF0010808FA0CF3B1F800C0FF
:100A40000CEA03069E4221D183004FF00F0C0CFAF2
:100A500003F7BC4305FA03FC4CEA040491F803C015
:100A6000BCF1280F05D100F1080C08FA0CF8C2F807
:100A7000148091F803C0BCF1480F07D100F1080CB5
:100A80004FF0010808FA0CF8C2F81080401C082842
:100A9000CED35460BDE8F0810246002093680B403D
:100AA0000BB1012000E00020704701617047000099
:100AB00010B541F61F41092004F084FB4FF4165095
:100AC00006F0D8FD0348002101604160018106F075
:100AD00019F910BD5F00002000BFFEE708B5012135
:100AE000442004F019FA1C20ADF8000048208DF8CD
:100AF000030069460648FFF744FF0120ADF80000F7
:100B000028208DF8030069460248FFF73AFF08BD28
:100B1000001801400008014010B5044614B101203E
:100B20002C4908702B480078002837D010212A481B
:100B3000FFF7B2FF78B108212748FFF7ADFF50B1AA
:100B400004212548FFF7A8FF28B101212348FFF71A
:100B5000A3FF012822D10A2004F062FD00201D49D4
:100B6000087010211C48FFF797FF08B9012010BD3D
:100B700008211948FFF790FF08B90220F7E7042180
:100B80001548FFF789FF08B90320F0E70121134852
:100B9000FFF782FF01281BD10420E8E710210E484F
:100BA000FFF77AFF012813D108210B48FFF774FFE4
:100BB00001280DD104210848FFF76EFF012807D155
:100BC00001210648FFF768FF10B9012001490870AC
:100BD0000020CCE74300002000180140000801403D
:100BE00070B50446002617480588408845431548D7
:100BF000808846F60401884216D11248807901287F
:100C000012D100200F4988712A2048812B20888129
:100C10000021084603F028FF01200A4988712B2093
:100C200048812A20888103E00021084603F01CFF48
:100C300004F0C2F8002602E003480480761CAE42AD
:100C4000FAD370BD781300200008006C10B504467C
:100C5000002C66D16C498871F02008804FF4A07098
:100C600048800846808849F2413188420BD0664866
:100C7000808846F60401884205D06348808845F2A2
:100C8000103188421AD12C205F4908812A204881DE
:100C90002B2088810846808846F60401884205D0CA
:100CA0005948808845F21031884206D14FF4A0702F
:100CB000554908804FF4F0704880A1E05248808880
:100CC00045F21051884210D14FF430504E490881FE
:100CD0004FF4285048814FF42C5088814FF4F07025
:100CE00008804FF4487048808AE04748808841F681
:100CF000631188420DD12C20434908812B20488163
:100D00002A2088814FF4F07008804FF448704880A2
:100D100076E022203C4908812020488121208881DA
:100D20006EE00120384988714FF4A0700880F020EF
:100D300048800846808849F24131884205D03248CF
:100D4000808845F21031884207D12C202E49088135
:100D50002A2048812B2088813FE02B48808846F656
:100D60000401884207D12C20274908812B20488183
:100D70002A20888131E02448808845F21051884239
:100D800010D14FF43050204908814FF42850488149
:100D90004FF42C5088814FF4487008804FF4F07065
:100DA00048801AE01848808841F6631188420DD1C6
:100DB0002C20154908812A2048812B2088814FF456
:100DC000487008804FF4F070488006E022200E49F9
:100DD000088121204881202088810B48808846F6A0
:100DE0000401884205D00848808845F210318842C5
:100DF00006D14FF4F070044908804FF4A070488089
:100E0000002003F0BBFC10BD7813002030B5034672
:100E10000C4615465A48808849F24131884205D02F
:100E20005748808845F21031884214D15449488986
:100E300003F0BCFF181203F0B3FFD8B203F0B0FF09
:100E40004F49888903F0B2FF201203F0A9FFE0B2F6
:100E500003F0A6FF8CE04A48808845F21051884292
:100E600020D14749488903F0A1FF181203F098FFE9
:100E700043494989491C88B203F098FFD8B203F06E
:100E80008FFF3F49888903F091FF201203F088FF0C
:100E90003B498989491C88B203F088FFE0B203F01E
:100EA0007FFF65E03648808841F66311884228D18B
:100EB0003348807920B932480088401EC01A83B276
:100EC0002F49488903F072FF181203F069FFD8B266
:100ED00003F066FF181203F063FFD8B203F060FF5F
:100EE0002749888903F062FF201203F059FFE0B21E
:100EF00003F056FF201203F053FFE0B203F050FF5F
:100F000036E01F48808846F6040188421DD11C48FF
:100F10008079012804D11A480088401EC01A83B283
:100F20001749488903F042FF181203F039FFD8B27D
:100F300003F036FF1249888903F038FF201203F0CE
:100F40002FFFE0B203F02CFF12E00D48807901285A
:100F500004D10B480088401EC01A83B20849488952
:100F6000194603F033FF06498889214603F02EFF16
:100F70000348008903490880881C058030BD0000B3
:100F800078130020FE07006C00B59FB00121080215
:100F900003F092FF01214FF4B47003F0BDFF012074
:100FA000ADF8780010208DF87B0003208DF87A00D2
:100FB0001EA9FE48FFF7E5FC4CF23370ADF878004F
:100FC00018208DF87B0003208DF87A001EA9F848C0
:100FD000FFF7D7FC4FF68070ADF8780018208DF839
:100FE0007B0003208DF87A001EA9F248FFF7C9FCA8
:100FF00041F20100ADF8780018208DF87B00032045
:101000008DF87A001EA9EC48FFF7BBFC0120089080
:10101000002009900F200A9000200B900C900D905A
:101020000E90019002900320039000200490059000
:101030000690079006200F9000201090119010202D
:1010400012900020139015901490169017904FF462
:1010500080501890002019904FF480401A90002082
:101060001B9008A81C9001A81D900FA8FFF716FC64
:1010700001210620FFF7F8FB322004F0D1FA00200E
:1010800003F046FBCD49888008468088FF280ADBAC
:10109000084680884FF6FF71884204D0C748808890
:1010A000B0F5134F7ED1D32003F080FE03F026FB72
:1010B000C249888003F022FBC049888003F01EFBF0
:1010C000BE498880084680884FF6FF7101EA0020FB
:1010D000BA49888003F012FBB84989880843B749A8
:1010E00088800846808849F2413188425AD0BF2022
:1010F00003F05CFE03F002FBB049888003F0FEFAC7
:10110000AE49888003F0FAFAAC49888003F0F6FA19
:10111000AA498880084680884FF6FF7101EA0020BE
:10112000A649888003F0EAFAA44989880843A349BC
:1011300088800846808846F6040188427AD0D42008
:1011400003F034FE03F0DAFA9C49888003F0D6FA03
:101150009A49888003F0D2FA9849888008468088A6
:101160004FF6FF7101EA00209449888003F0C6FA27
:10117000924989880843914988800846808845F2C9
:101180001031884256D04FF45A4003F00FFE03F05E
:10119000B5FA8A4988804FF45B4003F007FE03F0FC
:1011A000ADFA00E046E085498880084680884FF621
:1011B000FF7101EA0020814988804FF45C4003F010
:1011C000F5FD03F09BFA7D49898808437B498880B7
:1011D00008468088B0F5004F02D145F21050888053
:1011E0007648808845F21051884223D0A12003F030
:1011F000DDFD03F083FA7149888003F07FFA6F49BF
:101200008880084680884FF6FF7101EA00206B490C
:10121000888003F073FA69498988084367498880A0
:101220000846808845F26171884203D141F6631017
:10123000624988806148818861A0FEF7F3FF5F48BA
:10124000808849F2413188427ED1CF2003F0AEFD43
:10125000002003F0A5FDC12003F0A2FD302003F023
:101260009FFDED2003F0A2FD642003F099FD032013
:1012700003F096FD122003F093FD812003F090FD12
:10128000E82003F093FD852003F08AFD102003F091
:1012900087FD7A2003F084FDCB2003F087FD392001
:1012A00003F07EFD2C2003F07BFD002003F078FD91
:1012B000342003F075FD022003F072FDF72003F0E7
:1012C00075FD202003F06CFDEA2003F06FFD002087
:1012D00003F066FD002003F063FDC02003F066FD0F
:1012E0001B2003F05DFDC12003F060FD012003F031
:1012F00057FDC52003F05AFD302003F051FD30208A
:1013000003F04EFDC72003F051FDB72003F048FD68
:10131000362003F04BFD482003F042FD3A2003F055
:1013200045FD552003F03CFDB12003F03FFD0020BA
:1013300003F036FD1A2003F033FDB62003F036FD2E
:101340000A2003F02DFD00E0AAE0A22003F028FD12
:10135000F22003F02BFD002003F022FD262003F0F5
:1013600025FD012003F01CFDE02003F01FFD0F20F0
:1013700003F016FD2A2003F013FD282003F010FDD2
:10138000082003F00DFD0E2003F00AFD082003F0F5
:1013900007FD542003F004FDA92003F001FD4320C4
:1013A00003F0FEFC0A2003F0FBFC11E0000C0140FE
:1013B0000014014000180140002001407813002073
:1013C000204C43442049443A25780D0A000000008F
:1013D0000F2003F0E5FC002003F0E2FC002003F006
:1013E000DFFC002003F0DCFC002003F0D9FCE1204E
:1013F00003F0DCFC002003F0D3FC152003F0D0FC4C
:10140000172003F0CDFC072003F0CAFC112003F0E5
:10141000C7FC062003F0C4FC2B2003F0C1FC5620BF
:1014200003F0BEFC3C2003F0BBFC052003F0B8FC3D
:10143000102003F0B5FC0F2003F0B2FC3F2003F0B6
:10144000AFFC3F2003F0ACFC0F2003F0A9FC2B20E5
:1014500003F0ACFC002003F0A3FC002003F0A0FC90
:10146000012003F09DFC3F2003F09AFC2A2003F0AA
:101470009DFC002003F094FC002003F091FC002070
:1014800003F08EFCEF2003F08BFC112003F08EFCA8
:10149000782004F0C5F8292003F088FC03F01DB97A
:1014A000FE48808846F6040188427CD1112003F072
:1014B0007DFC142004F0B4F8D02003F077FC072062
:1014C00003F06EFC422003F06BFC1D2003F068FC6F
:1014D000D12003F06BFC002003F062FC1A2003F023
:1014E0005FFC092003F05CFCD22003F05FFC0120CC
:1014F00003F056FC222003F053FCC02003F056FCFE
:10150000102003F04DFC3B2003F04AFC002003F0C8
:1015100047FC022003F044FC112003F041FCC520ED
:1015200003F044FC032003F03BFCC82003F03EFC26
:10153000002003F035FC252003F032FC212003F0CD
:101540002FFC052003F02CFC002003F029FC0A20CE
:1015500003F026FC652003F023FC252003F020FC8B
:10156000772003F01DFC502003F01AFC0F2003F03D
:1015700017FC002003F014FCF82003F017FC0120F6
:1015800003F00EFCFE2003F011FC002003F008FC29
:10159000022003F005FC202003F008FC362003F0B5
:1015A00005FC082000E02CE003F0FAFB3A2003F0F1
:1015B000FDFB552003F0F4FB2B2003F0F7FB00208C
:1015C00003F0EEFB002003F0EBFB012003F0E8FB4F
:1015D0003F2003F0E5FB2A2003F0E8FB002003F0A6
:1015E000DFFB002003F0DCFB012003F0D9FBDF2050
:1015F00003F0D6FB782004F013F8292003F0D6FB83
:101600004CE7A648808845F21031884240F07C873C
:10161000ED2003F0CBFB012003F0C2FBFE2003F022
:10162000BFFBEE2003F0C2FBDE2003F0B9FB21205C
:1016300003F0B6FBF12003F0B9FB012003F0B0FB8F
:10164000DF2003F0B3FB102003F0AAFBC42003F05B
:10165000ADFB8F2003F0A4FBC62003F0A7FB002006
:1016600003F09EFBE22003F09BFBE22003F098FBDB
:10167000E22003F095FBBF2003F098FBAA2003F0C3
:101680008FFBB02003F092FB0D2003F089FB0020BC
:1016900003F086FB0D2003F083FB002003F080FBAA
:1016A000112003F07DFB002003F07AFB192003F0EA
:1016B00077FB002003F074FB212003F071FB002076
:1016C00003F06EFB2D2003F06BFB002003F068FBA2
:1016D0003D2003F065FB002003F062FB5D2003F07A
:1016E0005FFB002003F05CFB5D2003F059FB002052
:1016F00003F056FBB12003F059FB802003F050FBB0
:10170000002003F04DFB8B2003F04AFB002003F088
:1017100047FB962003F044FB002003F041FBB2207E
:1017200003F044FB002003F03BFB002003F038FBF8
:10173000022003F035FB002003F032FB032003F00E
:101740002FFB002003F02CFBB32003F02FFB002025
:1017500003F026FB002003F023FB002003F020FB16
:10176000002003F01DFB002003F01AFB002003F013
:1017700017FB002003F014FB002003F011FB0020F6
:1017800003F00EFB002003F00BFB002003F008FB2E
:10179000002003F005FB002003F002FB002003F013
:1017A000FFFA002003F0FCFA002003F0F9FA002011
:1017B00003F0F6FA002003F0F3FA002003F0F0FA49
:1017C000002003F0EDFA002003F0EAFA002003F015
:1017D000E7FA002003F0E4FA002003F0E1FAB42075
:1017E00003F0E4FA8B2003F0DBFA002003F0D8FAD0
:1017F000962003F0D5FA002003F0D2FAA12003F0DE
:10180000CFFA002003F0CCFAB52003F0CFFA022083
:1018100003F0C6FA002003F0C3FA032003F0C0FA75
:10182000002003F0BDFA042003F0BAFA002003F010
:10183000B7FAB62003F0BAFA002003F0B1FA00209C
:1018400003F0AEFAB72003F0B1FA002003F0A8FAD3
:10185000002003F0A5FA3F2003F0A2FA002003F0D5
:101860009FFA5E2003F09CFA002003F099FA6420AE
:1018700003F096FA002003F093FA8C2003F090FA1C
:10188000002003F08DFAAC2003F08AFA002003F068
:1018900087FADC2003F084FA002001E078130020AE
:1018A00003F07EFA702003F07BFA002003F078FA50
:1018B000902003F075FA002003F072FAEB2003F099
:1018C0006FFA002003F06CFADC2003F069FA0020C4
:1018D00003F066FAB82003F069FA002003F060FA1A
:1018E000002003F05DFA002003F05AFA002003F014
:1018F00057FA002003F054FA002003F051FA0020B8
:1019000003F04EFA002003F04BFABA2003F04EFA2F
:10191000242003F045FA002003F042FA002003F0EF
:101920003FFA002003F03CFAC12003F03FFA2020E8
:1019300003F036FA002003F033FA542003F030FAB3
:10194000002003F02DFAFF2003F02AFA002003F014
:1019500027FAC22003F02AFA0A2003F021FA002015
:1019600003F01EFA042003F01BFA002003F018FA1B
:10197000C32003F01BFA3C2003F012FA002003F00E
:101980000FFA3A2003F00CFA002003F009FA39208C
:1019900003F006FA002003F003FA372003F000FA00
:1019A000002003F0FDF93C2003F0FAF9002003F0D9
:1019B000F7F9362003F0F4F9002003F0F1F93220B2
:1019C00003F0EEF9002003F0EBF92F2003F0E8F923
:1019D000002003F0E5F92C2003F0E2F9002003F0E9
:1019E000DFF9292003F0DCF9002003F0D9F92620E3
:1019F00003F0D6F9002003F0D3F9242003F0D0F946
:101A0000002003F0CDF9242003F0CAF9002003F0F0
:101A1000C7F9232003F0C4F9002003F0C1F93C20EA
:101A200003F0BEF9002003F0BBF9362003F0B8F94B
:101A3000002003F0B5F9322003F0B2F9002003F0E2
:101A4000AFF92F2003F0ACF9002003F0A9F92C2006
:101A500003F0A6F9002003F0A3F9292003F0A0F970
:101A6000002003F09DF9262003F09AF9002003F0EE
:101A700097F9242003F094F9002003F091F9242031
:101A800003F08EF9002003F08BF9232003F088F98E
:101A9000002003F085F9C42003F088F9622003F0E8
:101AA0007FF9002003F07CF9052003F079F900208C
:101AB00003F076F9842003F073F9002003F070F945
:101AC000F02003F06DF9002003F06AF9182003F00C
:101AD00067F9002003F064F9A42003F061F9002005
:101AE00003F05EF9182003F05BF9002003F058F9C9
:101AF000502003F055F9002003F052F90C2003F0B8
:101B00004FF9002003F04CF9172003F049F90020A9
:101B100003F046F9952003F043F9002003F040F963
:101B2000F32003F03DF9002003F03AF9E62003F03A
:101B300037F9002003F034F9C52003F037F93220DB
:101B400003F02EF9002003F02BF9442003F028F9CC
:101B5000002003F025F9652003F022F9002003F0AE
:101B60001FF9762003F01CF9002003F019F98820F2
:101B700003F016F9002003F013F9C62003F016F95C
:101B8000202003F00DF9002003F00AF9172003F0DC
:101B900007F9002003F004F9012003F001F9002007
:101BA00003F0FEF8C72003F001F9002003F0F8F875
:101BB000002003F0F5F8002003F0F2F8002003F015
:101BC000EFF8C82003F0F2F8002003F0E9F8002055
:101BD00003F0E6F8002003F0E3F8002003F0E0F85B
:101BE000C92003F0E3F8002003F0DAF8002003F046
:101BF000D7F8002003F0D4F8002003F0D1F800203B
:101C000003F0CEF8002003F0CBF8002003F0C8F872
:101C1000002003F0C5F8002003F0C2F8002003F014
:101C2000BFF8002003F0BCF8002003F0B9F8002052
:101C300003F0B6F8002003F0B3F8002003F0B0F88A
:101C4000002003F0ADF8E02003F0B0F8162003F018
:101C5000A7F8002003F0A4F81C2003F0A1F800204E
:101C600003F09EF8212003F09BF8002003F098F881
:101C7000362003F095F8002003F092F8462003F098
:101C80008FF8002003F08CF8522003F089F8002030
:101C900003F086F8642003F083F8002003F080F856
:101CA0007A2003F07DF8002003F07AF88B2003F00F
:101CB00077F8002003F074F8992003F071F8002001
:101CC00003F06EF8A82003F06BF8002003F068F82A
:101CD000B92003F065F8002003F062F8C42003F097
:101CE0005FF8002003F05CF8CA2003F059F80020E8
:101CF00003F056F8D22003F053F8002003F050F818
:101D0000D92003F04DF8002003F04AF8E02003F05A
:101D100047F8002003F044F8F32003F041F80020D6
:101D200003F03EF8E12003F041F8162003F038F804
:101D3000002003F035F81C2003F032F8002003F0F7
:101D40002FF8222003F02CF8002003F029F8362089
:101D500003F026F8002003F023F8452003F020F8D4
:101D6000002003F01DF8522003F01AF8002003F0C1
:101D700017F8642003F014F8002003F011F87A201B
:101D800003F00EF8002003F00BF88B2003F008F8A6
:101D9000002003F005F8992003F002F8002002F07B
:101DA000FFFFA82002F0FCFF002002F0F9FFB9209D
:101DB00002F0F6FF002002F0F3FFC42002F0F0FF73
:101DC000002002F0EDFFCA2002F0EAFF002002F03E
:101DD000E7FFD22002F0E4FF002002F0E1FFD8206C
:101DE00002F0DEFF002002F0DBFFE02002F0D8FF6F
:101DF000002002F0D5FFF32002F0D2FF002002F015
:101E0000CFFFE22002F0D2FF052002F0C9FF002040
:101E100002F0C6FF0B2002F0C3FF002002F0C0FF5B
:101E20001B2002F0BDFF002002F0BAFF342002F0B8
:101E3000B7FF002002F0B4FF442002F0B1FF002001
:101E400002F0AEFF4F2002F0ABFF002002F0A8FF2F
:101E5000612002F0A5FF002002F0A2FF792002F02D
:101E60009FFF002002F09CFF882002F099FF0020D5
:101E700002F096FF972002F093FF002002F090FFFF
:101E8000A62002F08DFF002002F08AFFB72002F0AA
:101E900087FF002002F084FFC22002F081FF0020B3
:101EA00002F07EFFC72002F07BFF002002F078FFE7
:101EB000D12002F075FF002002F072FFD62002F060
:101EC0006FFF002002F06CFFDD2002F069FF0020B0
:101ED00002F066FFF32002F063FF002002F060FFD3
:101EE000E32002F063FF052002F05AFF002002F019
:101EF00057FF0A2002F054FF002002F051FF1C207F
:101F000002F04EFF002002F04BFF332002F048FFAA
:101F1000002002F045FF442002F042FF002002F0C2
:101F20003FFF502002F03CFF002002F039FF62200A
:101F300002F036FF002002F033FF782002F030FF7D
:101F4000002002F02DFF882002F02AFF002002F07E
:101F500027FF972002F024FF002002F021FFA62097
:101F600002F01EFF002002F01BFFB72002F018FF56
:101F7000002002F015FFC22002F012FF002002F044
:101F80000FFFC72002F00CFF002002F009FFD12054
:101F900002F006FF002002F003FFD52002F000FF50
:101FA000002002F0FDFEDD2002F0FAFE002002F02B
:101FB000F7FEF32002F0F4FE002002F0F1FEE42030
:101FC00002F0F4FE012002F0EBFE002002F0E8FE39
:101FD000012002F0E5FE002002F0E2FE022002F005
:101FE000DFFE002002F0DCFE2A2002F0D9FE0020F5
:101FF00002F0D6FE3C2002F0D3FE002002F0D0FE1C
:102000004B2002F0CDFE002002F0CAFE5D2002F05F
:10201000C7FE002002F0C4FE742002F0C1FE0020C2
:1020200002F0BEFE842002F0BBFE002002F0B8FEEB
:10203000932002F0B5FE002002F0B2FEA22002F0D2
:10204000AFFE002002F0ACFEB32002F0A9FE00209B
:1020500002F0A6FEBE2002F0A3FE002002F0A0FEC9
:10206000C42002F09DFE002002F09AFECD2002F076
:1020700097FE002002F094FED32002F091FE002093
:1020800002F08EFEDD2002F08BFE002002F088FEC2
:10209000F32002F085FE002002F082FEE52002F02F
:1020A00085FE002002F07CFE002002F079FE002078
:1020B00002F076FE002002F073FE022002F070FEB5
:1020C000002002F06DFE292002F06AFE002002F0DE
:1020D00067FE3C2002F064FE002002F061FE4B200F
:1020E00002F05EFE002002F05BFE5D2002F058FE72
:1020F000002002F055FE742002F052FE002002F093
:102100004FFE842002F04CFE002002F049FE932096
:1021100002F046FE002002F043FEA22002F040FE44
:10212000002002F03DFEB32002F03AFE002002F053
:1021300037FEBE2002F034FE002002F031FEC42043
:1021400002F02EFE002002F02BFECD2002F028FE31
:10215000002002F025FED32002F022FE002002F033
:102160001FFEDC2002F01CFE002002F019FEF3200E
:1021700002F016FE002002F013FEE62002F016FE2A
:10218000112002F00DFE002002F00AFE342002F0C1
:1021900007FE002002F004FE562002F001FE00209F
:1021A00002F0FEFD762002F0FBFD002002F0F8FDBB
:1021B000772002F0F5FD002002F0F2FD662002F02B
:1021C000EFFD002002F0ECFD882002F0E9FD002088
:1021D00002F0E6FD992002F0E3FD002002F0E0FDB0
:1021E000BB2002F0DDFD002002F0DAFD992002F0B4
:1021F000D7FD002002F0D4FD662002F0D1FD0020C2
:1022000002F0CEFD552002F0CBFD002002F0C8FD0B
:10221000552002F0C5FD002002F0C2FD452002F06D
:10222000BFFD002002F0BCFD432002F0B9FD0020FC
:1022300002F0B6FD442002F0B3FD002002F0B0FD34
:10224000E72002F0B3FD322002F0AAFD002002F0E8
:10225000A7FD552002F0A4FD002002F0A1FD76208C
:1022600002F09EFD002002F09BFD662002F098FD2A
:10227000002002F095FD672002F092FD002002F0A0
:102280008FFD672002F08CFD002002F089FD872081
:1022900002F086FD002002F083FD992002F080FD0F
:1022A000002002F07DFDBB2002F07AFD002002F04C
:1022B00077FD992002F074FD002002F071FD772077
:1022C00002F06EFD002002F06BFD442002F068FD7C
:1022D000002002F065FD562002F062FD002002F0B1
:1022E0005FFD232002F05CFD002002F059FD332049
:1022F00002F056FD002002F053FD452002F050FD93
:10230000002002F04DFDE82002F050FD002002F018
:1023100047FD002002F044FD992002F041FD00201D
:1023200002F03EFD872002F03BFD002002F038FD68
:10233000882002F035FD002002F032FD772002F007
:102340002FFD002002F02CFD662002F029FD002068
:1023500002F026FD882002F023FD002002F020FD7F
:10236000AA2002F01DFD002002F01AFDBB2002F0A1
:1023700017FD002002F014FD992002F011FD00204D
:1023800002F00EFD662002F00BFD002002F008FDB9
:10239000552002F005FD002002F002FD552002F05C
:1023A000FFFC002002F0FCFC442002F0F9FC0020BD
:1023B00002F0F6FC442002F0F3FC002002F0F0FCF6
:1023C000552002F0EDFC002002F0EAFCE92002F0CA
:1023D000EDFCAA2002F0E4FC002002F0E1FC002069
:1023E00002F0DEFC002002F0DBFC002002F0DEFC4C
:1023F000AA2002F0D5FCCF2002F0D8FC002002F089
:10240000CFFC002002F0CCFC002002F0C9FC002030
:1024100002F0C6FC002002F0C3FC002002F0C0FC69
:10242000002002F0BDFC002002F0BAFC002002F007
:10243000B7FC002002F0B4FC002002F0B1FC002048
:1024400002F0AEFC002002F0ABFC002002F0A8FC81
:10245000002002F0A5FC002002F0A2FC002002F007
:102460009FFCF02002F0A2FC002002F099FC50201A
:1024700002F096FC002002F093FC002002F090FC99
:10248000002002F08DFCF32002F090FC002002F00E
:1024900087FCF92002F08AFC062002F081FC102063
:1024A00002F07EFC292002F07BFC002002F078FC88
:1024B0003A2002F07BFC552002F072FC112002F061
:1024C00075FC642003F0ACF8292002F06FFC352085
:1024D00002F06CFC002002F063FC512002F066FC6C
:1024E000FF2002F05DFC532002F060FC2C2002F083
:1024F00057FC552002F05AFC822002F051FC2C209F
:1025000002F054FC02F0E9B8FE48808845F2105110
:1025100088427DD155214FF4704002F057FCAA212A
:102520004FF2010002F052FC52214FF2020002F081
:102530004DFC08214FF2030002F048FC01214FF24C
:10254000040002F043FC0D214FF4304002F03EFC49
:102550000D214BF2010002F039FC0D214BF202007B
:1025600002F034FC34214FF4364002F02FFC3421C9
:102570004BF2016002F02AFC34214BF2026002F0BF
:1025800025FC0D214FF4314002F020FC0D214BF2CF
:10259000011002F01BFC0D214BF2021002F016FCA0
:1025A00034214FF4374002F011FC34214BF201701A
:1025B00002F00CFC34214BF2027002F007FC002107
:1025C0004FF4324002F002FC00214BF2012002F0F5
:1025D000FDFB00214BF2022002F0F8FB24214FF416
:1025E000384002F0F3FB24214BF6010002F0EEFB31
:1025F00024214BF6020002F0E9FB01214FF43F4099
:1026000002F0E4FB0F214FF4334002F0DFFB00E067
:10261000FDE30F214BF2013002F0D8FB0F214BF20A
:10262000023002F0D3FB34214FF4394002F0CEFBEC
:1026300034214BF6011002F0C9FB34214BF6021095
:1026400002F0C4FB08214FF4354002F0BFFB082123
:102650004BF2015002F0BAFB08214BF2025002F09B
:10266000B5FB03214FF4424002F0B0FB24214FF4AC
:102670003A4002F0ABFB24214BF6012002F0A6FB0E
:1026800024214BF6022002F0A1FB00214FF43C4034
:1026900002F09CFB78214BF6014002F097FB0021F1
:1026A0004BF6024002F092FB00214FF43D4002F055
:1026B0008DFB78214BF6015002F088FB00214BF690
:1026C000025002F083FB00214FF43E4002F07EFBFB
:1026D00064214BF6016002F079FB00214FF4514078
:1026E00002F074FB33214DF2011002F06FFB002168
:1026F0004DF2021002F06AFB34214DF2031002F099
:1027000065FB00214DF2041002F060FB3A214DF20E
:10271000051002F05BFB00214DF2061002F056FBA3
:102720004A214DF2071002F051FB00214DF2081032
:1027300002F04CFB5C214DF2091002F047FB002136
:102740004DF20A1002F042FB81214DF20B1002F013
:102750003DFB00214DF20C1002F038FBA6214DF29A
:102760000D1002F033FB00214DF20E1002F02EFB93
:10277000E5214DF20F1002F029FB01214DF210105E
:1027800002F024FB13214DF2111002F01FFB012176
:102790004DF2121002F01AFB54214DF2131002F008
:1027A00015FB01214DF2141002F010FB82214DF2B5
:1027B000151002F00BFB01214DF2161002F006FB82
:1027C000CA214DF2171002F001FB02214DF2181040
:1027D00002F0FCFA00214DF2191002F0F7FA022182
:1027E0004DF21A1002F0F2FA01214DF21B1002F024
:1027F000EDFA02214DF21C1002F0E8FA34214DF2FC
:102800001D1002F0E3FA02214DF21E1002F0DEFA72
:1028100067214DF21F1002F0D9FA02214DF220106B
:1028200002F0D4FA84214DF2211002F0CFFA0221F5
:102830004DF2221002F0CAFAA4214DF2231002F048
:10284000C5FA02214DF2241002F0C0FAB7214DF270
:10285000251002F0BBFA02214DF2261002F0B6FA62
:10286000CF214DF2271002F0B1FA02214DF22810CB
:1028700002F0ACFADE214DF2291002F0A7FA022193
:102880004DF22A1002F0A2FAF2214DF22B1002F0C2
:102890009DFA02214DF22C1002F098FAFE214DF221
:1028A0002D1002F093FA03214DF22E1002F08EFA51
:1028B00010214DF22F1002F089FA03214DF2301051
:1028C00002F084FA33214DF2311002F07FFA032135
:1028D0004DF2321002F07AFA6D214DF2331002F00F
:1028E00075FA00214FF4524002F070FA33214DF294
:1028F000012002F06BFA00214DF2022002F066FA8C
:10290000342101E0781300204DF2032002F05EFA3A
:1029100000214DF2042002F059FA3A214DF205202F
:1029200002F054FA00214DF2062002F04FFA4A213B
:102930004DF2072002F04AFA00214DF2082002F081
:1029400045FA5C214DF2092002F040FA00214DF2D7
:102950000A2002F03BFA81214DF20B2002F036FAF8
:1029600000214DF20C2002F031FAA6214DF20D208B
:1029700002F02CFA00214DF20E2002F027FAE52198
:102980004DF20F2002F022FA01214DF2102002F048
:102990001DFA13214DF2112002F018FA01214DF217
:1029A000122002F013FA54214DF2132002F00EFA15
:1029B00001214DF2142002F009FA82214DF2152076
:1029C00002F004FA01214DF2162002F0FFF9CA21AB
:1029D0004DF2172002F0FAF902214DF2182002F010
:1029E000F5F900214DF2192002F0F0F902214DF223
:1029F0001A2002F0EBF901214DF21B2002F0E6F95A
:102A000002214DF21C2002F0E1F934214DF21D208B
:102A100002F0DCF902214DF21E2002F0D7F9672105
:102A20004DF21F2002F0D2F902214DF2202002F0D7
:102A3000CDF984214DF2212002F0C8F902214DF296
:102A4000222002F0C3F9A4214DF2232002F0BEF9A6
:102A500002214DF2242002F0B9F9B7214DF22520D0
:102A600002F0B4F902214DF2262002F0AFF9CF2195
:102A70004DF2272002F0AAF902214DF2282002F09F
:102A8000A5F9DE214DF2292002F0A0F902214DF234
:102A90002A2002F09BF9F2214DF22B2002F096F948
:102AA00002214DF22C2002F091F9FE214DF22D2051
:102AB00002F08CF903214DF22E2002F087F910214B
:102AC0004DF22F2002F082F903214DF2302002F066
:102AD0007DF933214DF2312002F078F903214DF2D6
:102AE000322002F073F96D214DF2332002F06EF9BD
:102AF00000214FF4534002F069F933214DF20130C7
:102B000002F064F900214DF2023002F05FF9342145
:102B10004DF2033002F05AF900214DF2043002F078
:102B200055F93A214DF2053002F050F900214DF2ED
:102B3000063002F04BF94A214DF2073002F046F917
:102B400000214DF2083002F041F95C214DF20930CC
:102B500002F03CF900214DF20A3002F037F98121F0
:102B60004DF20B3002F032F900214DF20C3002F040
:102B70002DF9A6214DF20D3002F028F900214DF279
:102B80000E3002F023F9E5214DF20F3002F01EF96C
:102B900001214DF2103002F019F913214DF21130DC
:102BA00002F014F901214DF2123002F00FF9542114
:102BB0004DF2133002F00AF901214DF2143002F007
:102BC00005F982214DF2153002F000F901214DF294
:102BD000163002F0FBF8CA214DF2173002F0F6F879
:102BE00002214DF2183002F0F1F800214DF21930B7
:102BF00002F0ECF802214DF21A3002F0E7F8012160
:102C00004DF21B3002F0E2F802214DF21C3002F0CE
:102C1000DDF834214DF21D3002F0D8F802214DF2DA
:102C20001E3002F0D3F867214DF21F3002F0CEF8CB
:102C300002214DF2203002F0C9F884214DF22130FA
:102C400002F0C4F802214DF2223002F0BFF8A421B4
:102C50004DF2233002F0BAF802214DF2243002F096
:102C6000B5F8B7214DF2253002F0B0F802214DF24F
:102C7000263002F0ABF8CF214DF2273002F0A6F853
:102C800002214DF2283002F0A1F8DE214DF2293068
:102C900002F09CF802214DF22A3002F097F8F2215E
:102CA0004DF22B3002F092F802214DF22C3002F05E
:102CB0008DF8FE214DF22D3002F088F803214DF2FF
:102CC0002E3002F083F810214DF22F3002F07EF802
:102CD00003214DF2303002F079F833214DF23130DA
:102CE00002F074F803214DF2323002F06FF86D21DA
:102CF0004DF2333002F06AF800214FF4544002F0F4
:102D000065F833214DF2014002F060F800214DF2E8
:102D1000024002F05BF834214DF2034002F056F815
:102D200000214DF2044002F051F83A214DF20540E5
:102D300002F04CF800214DF2064002F047F84A211B
:102D40004DF2074002F042F800214DF2084002F037
:102D50003DF85C214DF2094002F038F800214DF2B7
:102D60000A4002F033F881214DF20B4002F02EF8B8
:102D700000214DF20C4002F029F8A6214DF20D4041
:102D800002F024F800214DF20E4002F01FF8E52178
:102D90004DF20F4002F01AF801214DF2104002F0FE
:102DA00015F813214DF2114002F010F801214DF2F7
:102DB000124002F00BF854214DF2134002F006F8D5
:102DC00001214DF2144002F001F882214DF215402C
:102DD00001F0FCFF01214DF2164001F0F7FFCA217E
:102DE0004DF2174001F0F2FF02214DF2184001F0C0
:102DF000EDFF00214DF2194001F0E8FF02214DF2F4
:102E00001A4001F0E3FF01214DF21B4000E006E310
:102E100001F0DCFF02214DF21C4001F0D7FF34210C
:102E20004DF21D4001F0D2FF02214DF21E4001F093
:102E3000CDFF67214DF21F4001F0C8FF02214DF286
:102E4000204001F0C3FF84214DF2214001F0BEFF7C
:102E500002214DF2224001F0B9FFA4214DF223409E
:102E600001F0B4FF02214DF2244001F0AFFFB72181
:102E70004DF2254001F0AAFF02214DF2264001F05B
:102E8000A5FFCF214DF2274001F0A0FF02214DF216
:102E9000284001F09BFFDE214DF2294001F096FF12
:102EA00002214DF22A4001F091FFF2214DF22B4018
:102EB00001F08CFF02214DF22C4001F087FFFE2132
:102EC0004DF22D4001F082FF03214DF22E4001F022
:102ED0007DFF10214DF22F4001F078FF03214DF2CC
:102EE000304001F073FF33214DF2314001F06EFFAD
:102EF00003214DF2324001F069FF6D214DF2334064
:102F000001F064FF00214FF4554001F05FFF3321D1
:102F10004DF2015001F05AFF00214DF2025001F034
:102F200055FF34214DF2035001F050FF00214DF2C6
:102F3000045001F04BFF3A214DF2055001F046FFDD
:102F400000214DF2065001F041FF4A214DF2075099
:102F500001F03CFF00214DF2085001F037FF5C21E9
:102F60004DF2095001F032FF00214DF20A5001F0FC
:102F70002DFF81214DF20B5001F028FF00214DF271
:102F80000C5001F023FFA6214DF20D5001F01EFF61
:102F900000214DF20E5001F019FFE5214DF20F50C6
:102FA00001F014FF01214DF2105001F00FFF132129
:102FB0004DF2115001F00AFF01214DF2125001F0C3
:102FC00005FF54214DF2135001F000FF01214DF295
:102FD000145001F0FBFE82214DF2155001F0F6FE77
:102FE00001214DF2165001F0F1FECA214DF21750A9
:102FF00001F0ECFE02214DF2185001F0E7FE002135
:103000004DF2195001F0E2FE02214DF21A5001F08A
:10301000DDFE01214DF21B5001F0D8FE02214DF2E0
:103020001C5001F0D3FE34214DF21D5001F0CEFEB4
:1030300002214DF21E5001F0C9FE67214DF21F50D2
:1030400001F0C4FE02214DF2205001F0BFFE8421A8
:103050004DF2215001F0BAFE02214DF2225001F052
:10306000B5FEA4214DF2235001F0B0FE02214DF235
:10307000245001F0ABFEB7214DF2255001F0A6FE21
:1030800002214DF2265001F0A1FECF214DF2275032
:1030900001F09CFE02214DF2285001F097FEDE2146
:1030A0004DF2295001F092FE02214DF22A5001F01A
:1030B0008DFEF2214DF22B5001F088FE02214DF2DF
:1030C0002C5001F083FEFE214DF22D5001F07EFECA
:1030D00003214DF22E5001F079FE10214DF22F50B8
:1030E00001F074FE03214DF2305001F06FFE3321E8
:1030F0004DF2315001F06AFE03214DF2325001F0E1
:1031000065FE6D214DF2335001F060FE00214FF459
:10311000564001F05BFE33214DF2016001F056FE96
:1031200000214DF2026001F051FE34214DF20360A6
:1031300001F04CFE00214DF2046001F047FE3A21FF
:103140004DF2056001F042FE00214DF2066001F0F3
:103150003DFE4A214DF2076001F038FE00214DF29C
:10316000086001F033FE5C214DF2096001F02EFE93
:1031700000214DF20A6001F029FE81214DF20B6021
:1031800001F024FE00214DF20C6001F01FFEA6218B
:103190004DF20D6001F01AFE00214DF20E6001F0BB
:1031A00015FEE5214DF20F6001F010FE01214DF2F8
:1031B000106001F00BFE13214DF2116001F006FECC
:1031C00001214DF2126001F001FE54214DF2136015
:1031D00001F0FCFD01214DF2146001F0F7FD8221A8
:1031E0004DF2156001F0F2FD01214DF2166001F083
:1031F000EDFDCA214DF2176001F0E8FD02214DF20C
:10320000186001F0E3FD00214DF2196001F0DEFDD0
:1032100002214DF21A6001F0D9FD01214DF21B602F
:1032200001F0D4FD02214DF21C6001F0CFFD3421EC
:103230004DF21D6001F0CAFD02214DF21E6001F049
:10324000C5FD67214DF21F6001F0C0FD02214DF266
:10325000206001F0BBFD84214DF2216001F0B6FD3C
:1032600002214DF2226001F0B1FDA4214DF2236054
:1032700001F0ACFD02214DF2246001F0A7FDB72161
:103280004DF2256001F0A2FD02214DF2266001F011
:103290009DFDCF214DF2276001F098FD02214DF2F6
:1032A000286001F093FDDE214DF2296001F08EFDD2
:1032B00002214DF22A6001F089FDF2214DF22B60CE
:1032C00001F084FD02214DF22C6001F07FFDFE2112
:1032D0004DF22D6001F07AFD03214DF22E6001F0D8
:1032E00075FD10214DF22F6001F070FD03214DF2AC
:1032F000306001F06BFD33214DF2316001F066FD6D
:1033000003214DF2326001F061FD6D214DF2336019
:1033100001F05CFD55214FF4704001F057FDAA21EA
:103320004FF2010001F052FD52214FF2020001F074
:103330004DFD08214FF2030001F048FD00214FF23E
:10334000040001F043FDCC214FF4314001F03EFD7B
:1033500000214BF2011001F039FD05214FF43640F8
:1033600001F034FD70214FF4374001F02FFD702142
:103370004BF2017001F02AFD01214FF4384001F0B9
:1033800025FD03214BF6010001F020FD03214BF642
:10339000020001F01BFD03214BF6030001F016FDB6
:1033A00002214FF43C4001F011FD00214BF6014099
:1033B00001F00CFD00214BF6024001F007FDD02189
:1033C0004FF4494001F002FD02214CF6011001F0DA
:1033D000FDFC50214CF6021001F0F8FC50214CF697
:1033E000031001F0F3FC50214CF6041001F0EEFC48
:1033F00000214FF4545001F0E9FC55214FF468507E
:1034000001F0E4FC4FF4885001F0D0FC782002F089
:103410002DF94FF4245001F0C9FC01F05EB9FE48CB
:10342000808849F2253188427ED147F6F001E520B7
:1034300001F0CCFC4FF48071012001F0C7FC4FF487
:10344000E061022001F0C2FC41F23001032001F0F2
:10345000BDFC0021042001F0B9FC40F2022108204B
:1034600001F0B4FC0021092001F0B0FC00210A2089
:1034700001F0ACFC00210C2001F0A8FC00210D2083
:1034800001F0A4FC00210F2001F0A0FC002110207D
:1034900001F09CFC0721112001F098FC0021122072
:1034A00001F094FC0021132001F090FC0021072082
:1034B00001F08CFC41F29061102001F087FC40F299
:1034C0002721112001F082FC9D21122001F07EFCB9
:1034D0004FF4C851132001F079FC2521292001F077
:1034E00075FC0D212B2001F071FC0721302001F02B
:1034F0006DFC40F20331312001F068FC03213220E1
:1035000001F064FC40F20621352001F05FFC082147
:10351000362001F05BFC40F20641372001F056FCFA
:103520004FF44171382000E057E001F04FFC0721D3
:10353000392001F04BFC40F202613C2001F046FCD6
:1035400008213D2001F042FC0021502001F03EFC0A
:10355000EF21512001F03AFC0021522001F036FC0D
:1035600040F23F11532001F031FC4FF4274160201D
:1035700001F02CFC0121612001F028FC00216A20CF
:1035800001F024FC0021802001F020FC002181209A
:1035900001F01CFC0021822001F018FC0021832096
:1035A00001F014FC0021842001F010FC0021852092
:1035B00001F00CFC1021902001F008FC4FF4C061D8
:1035C000922001F003FC40F23311072001F0FEFBD2
:1035D0002221002001F0FAFB1FE78F48808849F282
:1035E000283188427ED141F28F01EC2001F0EEFBC0
:1035F00041F23421EF2001F0E9FB4FF4807101200A
:1036000001F0E4FB4FF4E061022001F0DFFB41F246
:103610003001032001F0DAFB0021042001F0D6FB89
:1036200040F20221082001F0D1FB0021092001F025
:10363000CDFB00210A2001F0C9FB01210C2001F083
:10364000C5FB00210D2001F0C1FB00210F2001F07E
:10365000BDFB0021102001F0B9FB0721112001F072
:10366000B5FB0021122001F0B1FB0021132001F075
:10367000ADFB0121072001F0A9FB322001F0D0FFB2
:1036800041F29041102001F0A1FB40F227211120CE
:1036900001F09CFB322001F0C3FF8A21122001F0CF
:1036A00095FB322001F0BCFF4FF4D051132001F004
:1036B0008DFB0621292001F089FB0D212B2001F033
:1036C00085FB322001F0ACFF0021202001F07EFBC1
:1036D0000021212001F07AFB322001F0A1FF00211E
:1036E000302000E074E001F071FB40F20461312011
:1036F00001F06CFB40F20531322001F067FB002144
:10370000352001F063FB40F60941362001F05EFBF5
:103710004FF40171372001F059FB40F2013138209C
:1037200001F054FB40F20771392001F04FFB0021FA
:103730003C2001F04BFB40F60A213D2001F046FB06
:10374000322001F06DFF0021502001F03FFBEF21FE
:10375000512001F03BFB0021522001F037FB40F2E9
:103760003F11532001F032FB4FF42741602001F05C
:103770002DFB0121612001F029FB00216A2001F0CD
:1037800025FB0021802001F021FB0021812001F098
:103790001DFB0021822001F019FB0021832001F094
:1037A00015FB0021842001F011FB0021852001F090
:1037B0000DFB1021902001F009FB4FF4C061922015
:1037C00001F004FB40F23311072001F0FFFA24E678
:1037D0001148808849F2203188427DD10021084675
:1037E00001F0F4FA4FF48071012001F0EFFA4FF488
:1037F000E061022001F0EAFA41F23001032001F019
:10380000E5FA0021042001F0E1FA40F2022108204B
:1038100001F0DCFA002101E078130020092001F01A
:10382000D5FA00210A2001F0D1FA01210C2001F083
:10383000CDFA00210D2001F0C9FA00210F2001F07E
:10384000C5FA322001F0ECFE40F20111072001F030
:10385000BDFA322001F0E4FE4FF48651102001F051
:10386000B5FA0721112001F0B1FA4FF48871122046
:1038700001F0ACFA4FF43061132001F0A7FA0021F7
:10388000292001F0A3FA44F210012B2001F09EFA46
:103890000021502001F09AFAEF21512001F096FA10
:1038A0000021522001F092FA40F23F11532001F022
:1038B0008DFA4FF41C51602001F088FA012161203B
:1038C00001F084FA00216A2001F080FA00218020B2
:1038D00001F07CFA002100E031E0812001F076FA6D
:1038E0000021822001F072FA0021832001F06EFA9B
:1038F0000021842001F06AFA0021852001F066FA97
:103900001021902001F062FA0021922001F05EFA6D
:103910000121932001F05AFA4FF48871952001F0AB
:1039200055FA0021972001F051FA0021982001F06A
:103930004DFA40F27311072001F048FA6DE5FE4898
:10394000808849F2313188427DD141F21401E7206B
:1039500001F03CFA4FF48071012001F037FA4FF486
:103960000071022001F032FA41F23801032001F027
:103970002DFA40F20221082001F028FA0021092046
:1039800001F024FA00210A2001F020FA00210C2085
:1039900001F01CFA00210D2001F018FA00210F207F
:1039A00001F014FA0021102001F010FA0721112073
:1039B00001F00CFA0021122001F008FA0021132076
:1039C00001F004FAC82001F02BFE41F290611020B2
:1039D00001F0FCF940F22721112001F0F7F9322023
:1039E00001F01EFE0C21122001F0F0F9322001F04E
:1039F00017FE4FF40061132001F0E8F9112129208E
:103A000001F0E4F90B212B2001F0E0F9322001F064
:103A100007FE0021202001F0D9F940F23F112120BA
:103A200001F0D4F90021302001F0D0F94FF4837176
:103A3000312001F0CBF90021322001F0C7F94FF419
:103A40000171352000E064E001F0C0F941F20A6143
:103A5000362001F0BBF940F20771372001F0B6F9CA
:103A60004FF48371382001F0B1F940F20771392029
:103A700001F0ACF940F202413C2001F0A7F940F618
:103A80000F413D2001F0A2F90021502001F09EF9E4
:103A9000EF21512001F09AF90021522001F096F90E
:103AA00040F23F11532001F091F94FF41C51602076
:103AB00001F08CF90121612001F088F900216A20D0
:103AC00001F084F90021802001F080F9002181209B
:103AD00001F07CF90021822001F078F90021832097
:103AE00001F074F90021842001F070F90021852093
:103AF00001F06CF91021902001F068F94FF4C061D9
:103B0000922001F063F940F23311072001F05EF9D1
:103B100083E48948808845F2084188427ED14FF489
:103B20008071012001F052F94FF4E061022001F0B0
:103B30004DF941F23001032001F048F90021042041
:103B400001F044F940F20721082001F03FF900217B
:103B5000092001F03BF900210A2001F037F900218A
:103B60000C2001F033F900210D2001F02FF9002184
:103B70000F2001F02BF9142001F052FD41F2B06149
:103B8000102001F023F90121112001F01FF901217A
:103B9000172001F01BF94FF49C71122001F016F967
:103BA0004FF40061132001F011F90921292001F0DF
:103BB0000DF909212A2001F009F90021A42001F0C2
:103BC00005F90021502001F001F9EF21512001F009
:103BD000FDF80021522001F0F9F840F23F11532086
:103BE00001F0F4F84FF41C51602001F0EFF80121CE
:103BF000612001F0EBF800216A2001F0E7F80021D4
:103C0000802001F0E3F80021812001F0DFF800219D
:103C1000822001F0DBF80021832000E023E001F0A6
:103C2000D5F80021842001F0D1F80021852001F091
:103C3000CDF81321902001F0C9F80021922001F065
:103C4000C5F80321932001F0C1F84FF48871952045
:103C500001F0BCF840F27311072001F0B7F83220F0
:103C600001F0DEFCB8E43448808841F20551884216
:103C70007ED10021072001F0A9F8322001F0D0FC0C
:103C80004FF48E71122001F0A1F80121A42001F05F
:103C90009DF80F21082001F099F808210A2001F071
:103CA00095F808210D2001F091F840F207713020BD
:103CB00001F08CF80721312001F088F840F203610F
:103CC000322001F083F84FF4E061332001F07EF8F8
:103CD00040F20221342001F079F80221352001F070
:103CE00075F841F60F71362001F070F840F2077157
:103CF000372001F06BF80021382001F067F800212F
:103D0000392001F063F840F207713A2001F05EF8C3
:103D100000213B2001F05AF807213C2001F056F821
:103D200000213D2001F052F8322001F079FC012100
:103D3000072001F04BF801E0781300200121172043
:103D400001F044F8322001F06BFC4FF4BD5110201B
:103D500001F03CF840F21721112001F037F84FF440
:103D60008F71122001F032F84FF47061132000E0DF
:103D700097E001F02BF800212A2001F027F80A2112
:103D8000292001F023F84FF49F71122001F01EF852
:103D90000021502001F01AF8EF21512001F016F80F
:103DA0000021522001F012F840F23F11532001F09F
:103DB0000DF84FF41C51602001F008F8012161203A
:103DC00001F004F800216A2001F000F800218020B1
:103DD00000F0FCFF0021812000F0F8FF002182208C
:103DE00000F0F4FF0021832000F0F0FF0021842088
:103DF00000F0ECFF0021852000F0E8FF1321902067
:103E000000F0E4FF4FF44071922000F0DFFF052145
:103E1000932000F0DBFF0021952000F0D7FF002168
:103E2000972000F0D3FF0021982000F0CFFF4FF43F
:103E30008071012000F0CAFF4FF4E061022000F021
:103E4000C5FF41F23801032000F0C0FF002104202B
:103E500000F0BCFF00210C2000F0B8FF00210F2073
:103E600000F0B4FF0021202000F0B0FF002121204D
:103E700000F0ACFF2121072000F0A8FF142001F082
:103E8000CFFB6121072000F0A1FF142001F0C8FB47
:103E900040F27311072000F099FF142001F0C0FBDD
:103EA00095E4FE4880884BF2055188427ED100217E
:103EB000084600F08BFF0021084600F087FF002134
:103EC000084600F083FF0021084600F07FFF012133
:103ED000A42000F07BFF142001F0A2FB4FF41C5142
:103EE000602000F073FF40F20221082000F06EFF16
:103EF0004FF40571302000F069FF43F21571312055
:103F000000F064FF40F20461322000F05FFF40F6F1
:103F10001661332000F05AFF42F21121342000F0E4
:103F200055FF4FF4A851352000F050FF48F20751DB
:103F3000362000F04BFF41F20741372000F046FFEA
:103F400041F20341382000F041FF2021392000F0E8
:103F50003DFF1A21902000F039FF0021102000F0D1
:103F600035FF0721112000F031FF0021122000F061
:103F70002DFF0021132000F029FF142001F050FB39
:103F80004FF4E661102000F021FF40F237111120BC
:103F900000F01CFF142001F043FB4FF4DC711220F1
:103FA00000F014FF142001F03BFB00E083E04FF42D
:103FB0007061132000F00AFF80212A2000F006FF24
:103FC0004821292000F002FF142001F029FB4FF4C2
:103FD0008071012000F0FAFE4FF4E061022000F051
:103FE000F5FE41F23801032000F0F0FE40F202211C
:103FF000082000F0EBFE00210A2000F0E7FE00217F
:104000000C2000F0E3FE00210D2000F0DFFE302147
:104010000E2000F0DBFE0021502000F0D7FEEF2143
:10402000512000F0D3FE0021522000F0CFFE40F2DC
:104030003F11532000F0CAFE4FF41C51602000F0E5
:10404000C5FE0121612000F0C1FE00216A2000F0C0
:10405000BDFE1121902000F0B9FE4FF4C061922006
:1040600000F0B4FE40F20241932000F0AFFE0221C6
:10407000942000F0ABFE142001F0D2FA01210720B9
:1040800000F0A4FE142001F0CBFA6121072000F01B
:104090009DFE40F27311072000F098FE00212020C1
:1040A00000F094FE0021212000F090FE222100204B
:1040B00000F08CFE11E3794880884CF2055188426B
:1040C0007ED10021084600F081FE0021084600F064
:1040D0007DFE142001F0A4FA0021084600F076FECF
:1040E0000021084600F072FE0021084600F06EFE36
:1040F0000021084600F06AFE0121A42000F066FEBF
:10410000142001F08DFA4FF41C51602000F05EFE87
:1041100040F60601082000F059FE40F203713020FD
:1041200000F054FE0121312000F050FE0421322025
:1041300000F04CFE4FF48171332000F047FE4FF445
:104140004071342000F042FE40F20311352000F0AF
:104150003DFE1F21362000F039FE40F2037137206A
:1041600000F034FE0121382000F030FE0421392017
:1041700000F02CFE1521902000F028FE4FF4826103
:10418000102000F023FE40F24721112000F01EFE17
:104190004FF4DE71122000F019FE4FF4606113201D
:1041A00000F014FE782001F03BFA4FF480710120FA
:1041B00000F00CFE4FF40071022000F007FE00E05A
:1041C00050E041F23001032000F000FE08210A20F7
:1041D00000F0FCFD00210C2000F0F8FD20210E2055
:1041E00000F0F4FD00210F2000F0F0FD0021202060
:1041F00000F0ECFD0021212000F0E8FD3D212A2007
:1042000000F0E4FD142001F00BFA2D21292000F02C
:10421000DDFD0021502000F0D9FD4DF2EF015120CD
:1042200000F0D4FD0021522000F0D0FD40F23F11FB
:10423000532000F0CBFD0021612000F0C7FD0021DC
:104240006A2000F0C3FD4FF44071922000F0BEFDE3
:104250000521932000F0BAFD4FF48071072000F093
:10426000B5FD3AE20D48808844F2315188427CD154
:104270000121002000F0AAFD0A2001F0D1F941F24D
:104280002861102000F0A2FD0E21122000F09EFDFA
:1042900040F63921132000F099FD01E07813002049
:1042A0000A2001F0BDF94021112000F08FFD5021BE
:1042B000152000F08BFD0A2001F0B2F91E2112201A
:1042C00000F084FD0A2001F0ABF94FF4B151102049
:1042D00000F07CFD42F63921132000F077FD0A2022
:1042E00001F09EF94FF48071012000F06FFD4FF452
:1042F0004071022000F06AFD41F23801032000F015
:1043000065FD40F20221082000F060FD08210A202E
:1043100000F05CFD0021302000F058FD40F2024129
:10432000312000F053FD4FF48371322000F04EFD38
:1043300040F20351332000F049FD4FF482713420E4
:1043400000F044FD40F20131352000F03FFD40F225
:104350000771362000F03AFD40F20531372000F0B9
:1043600035FD4FF40271382000E040E000F02EFDF2
:1043700040F60B71392000F029FD0221412000F0A8
:1043800025FD4FF41C51602000F020FD012161202B
:1043900000F01CFD4FF40471902000F017FD4FF465
:1043A0008571922000F012FD0421932000F00EFD93
:1043B0004FF48071A02000F009FD0121072000F0DA
:1043C00005FD2121072000F001FD2321072000F039
:1043D000FDFC3321072000F0F9FC40F233110720E7
:1043E00000F0F4FC0021A02000F0F0FC75E1C148D1
:1043F000808844F2355188427ED13021152000F06A
:10440000E5FC10219A2000F0E1FC2021112000F0B1
:10441000DDFC43F22841102000F0D8FC02211220DC
:1044200000F0D4FC41F23801132000F0CFFC28202A
:1044300001F0F6F81221084600F0C8FC282001F02F
:10444000EFF843F22041102000F0C0FC43F23801A5
:10445000132000F0BBFC462001F0E2F800213020E0
:1044600000F0B4FC40F20241312000F0AFFC40F219
:104470000731322000F0AAFC4FF44171332000F0E4
:10448000A5FC0421342000F0A1FC40F201413520BC
:1044900000F09CFC40F20771362000F097FC40F2DF
:1044A0000531372000F092FC4FF4C261382000F053
:1044B0008DFC4FF4C261392000F088FC4FF480710C
:1044C000012000F083FC4FF44071022000F07EFCDC
:1044D00041F23001032000F079FC40F60801082089
:1044E00000F074FC08210A2000F070FC4FF41C510D
:1044F000602000F06BFC00E031E00121612000F061
:1045000065FC4FF49F71902000F060FC4FF48071C7
:10451000922000F05BFC4FF48071932000F056FC79
:104520004FF44051A02000F051FC1021A32000F0D6
:104530004DFC0121072000F049FC2121072000F05B
:1045400045FC2321072000F041FC3321072000F027
:104550003DFC40F23311072000F038FCBDE0654817
:10456000808841F663118842F8D1E22000F01EFCF9
:104570001D2000F015FC022000F012FC042000F0C9
:104580000FFC642001F072F8E02000F00FFC012025
:1045900000F006FC0A2001F043F8E02000F006FCE1
:1045A000032000F0FDFB0C2001F03AF8012000F0A0
:1045B000FDFB0A2001F034F8E62000F0F7FB2F2085
:1045C00000F0EEFBFF2000F0EBFBFF2000F0E8FB2B
:1045D000B02000F0EBFB202000F0E2FB002000F018
:1045E000DFFB032000F0DCFB40F21F3000F0D8FBC3
:1045F000012000F0D5FB40F2DF1000F0D1FB0020DD
:1046000000F0CEFBB42000F0D1FB042000F0C8FB8A
:1046100040F21F4000F0C4FB002000F0C1FB2E2040
:1046200000F0BEFB002000F0BBFB002000F0B8FB58
:10463000002000F0B5FB002000F0B2FBB62000F037
:10464000B5FB022000F0ACFB4FF4037000F0A8FBB8
:10465000002000F0A5FB172000F0A2FB152000F0C1
:104660009FFB002000F09CFB002000F099FBF02055
:1046700000F09CFB032000F093FB292000F096FB48
:10468000D02000F093FB002000F08AFBBE2000F059
:104690008DFB052000F084FBFE2000F081FB012053
:1046A00000F07EFB002000F07BFB002000F078FB98
:1046B000002000F075FBB82000F078FB032000F02C
:1046C0006FFB012000F06CFBBA2000F06FFB0120B3
:1046D00000F066FB642000F027F80020FCF7B6FA33
:1046E0000120054908604FF6FF70FCF779FA1FB00A
:1046F00000BD0000781300208081214208B50348E6
:1047000000880090BDF8000008BD00000008006CA3
:1047100010B50446204600F049FB052000F0A6FF36
:10472000FFF7ECFF10BD00002DE9F0470446BE2066
:1047300000F03CFB052000F033FB204603F059F865
:1047400007464FF066320C4B03F066F8054603F05F
:1047500023F81FFA80F9484600F022FB012000F000
:104760001FFBFF2000F01CFB002000F019FB0020C5
:1047700000F016FBBDE8F0876666044070B504469D
:1047800000230026B748807901280BD1B5488088DE
:1047900046F60401884205D0B248808841F663118C
:1047A000884208D1AF488079F0B9AE48808841F698
:1047B0006311884218D1082C15D2DFE804F00406F2
:1047C000080A0C0E101206240DE007240BE0042446
:1047D00009E0052407E0012405E0002403E00324A8
:1047E00001E0022400BF00BF9E48808849F24131A9
:1047F000884217D09B48808846F60401884211D031
:104800009848808845F2103188420BD095488088BE
:1048100045F21051884205D09248808841F66311D4
:1048200088427DD1082C1CD2DFE804F00406090C74
:104830000F12151800BF14E043F0800311E043F09D
:1048400040030EE043F0C0030BE043F0200308E018
:1048500043F0600305E043F0A00302E043F0E0030F
:1048600000BF00BF7F48808845F21051884202D1C6
:104870004FF4585600E036267A48808845F21031C9
:1048800088420DD07748808845F21051884207D081
:104890007448808841F66311884201D043F00803D0
:1048A0007048808846F60401884201D143F0020333
:1048B0001946304600F08AFA6A48808841F663114A
:1048C00088421DD003F0200068B166480088654921
:1048D0004988884214DA634805884088614908801D
:1048E000084645800CE05F4800885E494988884258
:1048F00006DD5C48058840885A490880084645809E
:104900005848808845F21051884254D15549488909
:1049100000F04CFA002000F043FA5249498900E0C7
:1049200078E0491C88B200F041FA002000F038FA23
:104930004C494989891C88B200F038FA49490988EC
:10494000491EC1F30F2000F02BFA46494989C91CC2
:1049500088B200F02BFA43490978491EC8B200F02A
:104960001FFA4049888900F021FA002000F018FA67
:104970003C498989491C88B200F018FA002000F0EF
:104980000FFA38498989891C88B200F00FFA354935
:104990004988491EC1F30F2000F002FA3149898984
:1049A000C91C88B200F002FA2E498978491EC8B2A3
:1049B00000F0F6F955E02B49488900F0F7F900209E
:1049C00000F0EEF9002000F0EBF926490988491EB5
:1049D000C1F30F2000F0E4F922490978491EC8B25A
:1049E00000F0DEF91F49888900F0E0F9002000F0AE
:1049F000D7F9002000F0D4F91A494988491EC1F3BB
:104A00000F2000F0CDF917498978491EC8B200F08F
:104A1000C7F926E0082C1CD2DFE804F004070A0DD1
:104A20000F12151843F0300313E043F0100310E0A9
:104A300043F020030DE000BF0BE043F0380308E033
:104A400043F0280305E043F0180302E043F00803B5
:104A500000BF00BF032643F480531946304600F0E0
:104A6000B5F970BD7813002010B503460C466748B1
:104A7000808849F24131884205D06448808845F2F7
:104A80001031884214D16149488900F08FF9181219
:104A900000F086F9D8B200F083F95C49888900F00B
:104AA00085F9201200F07CF9E0B200F079F9ABE072
:104AB0005648808846F6040188421DD153488079C3
:104AC000012804D151480088401EC01A83B24F49C2
:104AD000488900F06BF9181200F062F9D8B200F0C2
:104AE0005FF94A49888900F061F9201200F058F90D
:104AF000E0B200F055F987E04448808841F6631140
:104B0000884247D141488079A8B940480088401E72
:104B1000C01A83B23D49488900F048F9002000F0EE
:104B20003FF9002000F03CF9181200F039F9D8B232
:104B300000F036F916E03549488900F037F91812C7
:104B400000F02EF9D8B200F02BF930490988491E3F
:104B5000C1F30F2000F024F92C490978491EC8B28E
:104B600000F01EF92949888900F020F9201200F090
:104B700017F9E0B200F014F924494988491EC1F33D
:104B80000F2000F00DF921498978491EC8B200F0C4
:104B900007F939E01D48808845F21051884220D13C
:104BA0001A49488900F002F9181200F0F9F817497B
:104BB0004989491C88B200F0F9F8D8B200F0F0F841
:104BC0001249888900F0F2F8201200F0E9F80F4944
:104BD0008989491C88B200F0E9F8E0B200F0E0F8F9
:104BE00012E00A488079012804D108480088401E54
:104BF000C01A83B205494889194600F0E7F803490D
:104C00008889214600F0E2F810BD000078130020EA
:104C10002DE9F84F80460E4617461C46B3462046FF
:104C2000E31704EB5373DB1021464FEAE47C04EBFB
:104C30005C7C4FEAEC0CA4EBCC0CBCF1000F02D076
:104C40004FF0010C01E04FF0000C6344224604EBEE
:104C5000D27C4FEA6C0C03FB0CF3DBB20093A7F1A0
:104C60002000C7B2002556E00C2C07D107EB470007
:104C70002B4901EB800010F8059013E0102C05D1B2
:104C8000284800EB071010F805900BE0182C07D10E
:104C900007EBC700244901EB800010F8059001E004
:104CA000BDE8F88F4FF0000A2FE009F0800030B126
:104CB0001E48028831464046FCF7A8F807E00A98EB
:104CC00028B91B48028831464046FCF79FF84FEA56
:104CD00049604FEA1069701C86B216484088B0429D
:104CE00000DCDDE7A6EB0B00A0420AD15E4608F12E
:104CF00001001FFA80F80F480088404500DCCFE72C
:104D000006E00AF1010000F0FF0ABAF1080FCCDB5F
:104D100000BF681CC5B200988542A5DB00BFBFE795
:104D2000147A0008887E000878840008500000206B
:104D300052000020781300202DE9F84704460D4664
:104D400090469946DDE9096704F0FF0A08EB040084
:104D50001FFA80F809EB05001FFA80F916E04445B8
:104D600002DB5446A81985B24D4500DB14E0002053
:104D700000903A78334629462046FFF749FF3046EF
:104D800006EBD07104EB61018CB27F1C38787E2871
:104D900002DC38782028E2DA00BFBDE8F88700009E
:104DA00001490880704700000008006C0149088034
:104DB00070470000FE07006C024800890249088025
:104DC0007047000078130020FE07006C024A108034
:104DD000921C118070470000FE07006C08B501218D
:104DE000482000F099F82020ADF8000010208DF840
:104DF000030003208DF8020069460948FBF7C1FD56
:104E000020210748FBF751FE2020ADF8000069463D
:104E10000448FBF7B6FD20210248FBF746FE08BD1B
:104E2000000C01400018014000BFFEE77047000081
:104E300070B5002100230F22C47804B3154C2468F8
:104E400004F4E064C4F5E064210AC1F10403CA403B
:104E5000447804FA03F184781440214309010E4C8C
:104E60000678A155047804F01F050124AC400578AC
:104E70006D11AD0005F1E025C5F8004109E00478A9
:104E800004F01F050124AC40044D0678761145F866
:104E9000264070BD0CED00E000E400E080E100E0A1
:104EA00002490143024A1160704700000000FA0500
:104EB0000CED00E07047000029B1064A5269024338
:104EC000044B5A6104E0034A52698243014B5A6120
:104ED000704700000010024029B1064AD26902431F
:104EE000044BDA6104E0034AD2698243014BDA6180
:104EF000704700000010024029B1064A12690243BF
:104F0000044B1A6104E0034A12698243014B1A619F
:104F1000704700000010024029B1064A926902431E
:104F2000044B9A6104E0034A92698243014B9A61FF
:104F3000704700000010024029B1064AD2680243BF
:104F4000044BDA6004E0034AD2688243014BDA6022
:104F5000704700000010024030B5002100220024FC
:104F600000232D4D6D6805F00C0121B1042905D0F9
:104F7000082923D105E0294D056022E0274D056071
:104F80001FE0254D6D6805F47012234D6D6805F422
:104F90008034022505EB92421CB9214D5543056032
:104FA0000BE01D4D6D6805F400351DB11C4D5543DA
:104FB000056002E0194D5543056002E0174D05609C
:104FC00000BF00BF144D6D6805F0F0010909154DD3
:104FD0006B5C0568DD4045600F4D6D6805F4E06170
:104FE000090A104D6B5C4568DD4085600A4D6D68AF
:104FF00005F46051C90A0B4D6B5C4568DD40C56026
:10500000054D6D6805F44041890B074D6B5CC56823
:10501000B5FBF3F5056130BD0010024000127A00C7
:1050200000093D002F0000203F000020704710B510
:1050300000F002F810BD00000CB5002001900090B7
:105040003348006840F480303149086000BF304880
:10505000006800F4003000900198401C0190009816
:1050600018B90198B0F5A06FF1D12948006800F493
:10507000003010B10120009001E000200090009865
:10508000012843D12348006840F0100021490860FE
:105090000846006820F0030008600846006840F0F9
:1050A000020008601A48406819494860084640688C
:1050B00048600846406840F48060486008464068A0
:1050C00020F47C1048600846406840F4E8104860CE
:1050D0000846006840F08070086000BF0C48006817
:1050E00000F000700028F9D00948406820F0030063
:1050F000074948600846406840F00200486000BF29
:105100000348406800F00C000828F9D10CBD0000ED
:105110000010024000200240042808D14FF0E02196
:10512000096941F004014FF0E022116107E04FF0FE
:10513000E021096921F004014FF0E022116170477C
:105140007047000010B51348006840F00100114995
:10515000086008464068104908400E494860084603
:1051600000680E4908400B4908600846006820F4B2
:10517000802008600846406820F4FE0048604FF434
:105180001F008860FFF753FF4FF00060044908607C
:1051900010BD0000001002400000FFF8FFFFF6FE07
:1051A00008ED00E010B50121054800F04AF828B1EB
:1051B0000121034800F036F801F0B0FB10BD0000FB
:1051C000000400407FB505460C4601210220FFF790
:1051D00083FEADF80850ADF804400020ADF80A0099
:1051E000ADF8060001A90E4800F046F8012211466C
:1051F0000B4800F037F81D208DF8000000208DF8D6
:10520000010003208DF8020001208DF8030068469C
:10521000FFF70EFE0121024800F007F87FBD0000F5
:1052200000040040CA430282704721B1028842F064
:105230000102028004E002884FF6FE731A400280E9
:10524000704730B50246002000230024158A05EA85
:105250000103958905EA010413B10CB1012000E0B6
:10526000002030BD1AB183890B43838102E083891A
:105270008B43838170470000002202881D4B9842B7
:105280000ED01D4B98420BD0B0F1804F08D01B4B75
:10529000984205D01A4B984202D01A4B984204D13A
:1052A0004FF68F731A404B881A43174B984207D01A
:1052B000164B984204D04FF6FF431A40CB881A434E
:1052C00002808B8883850B8803850A4B98420BD01C
:1052D000094B984208D00E4B984205D00D4B98428E
:1052E00002D00D4B984201D10B7A038601238382B1
:1052F00070470000002C01400034014000040040D1
:1053000000080040000C0040001000400014004065
:1053100000400140004401400048014010B540F207
:105320002551064800F08BF838B1044800F042F9E6
:105330000349087001200349088010BD003801406E
:105340002E0000202C00002008B540F2255107480F
:1053500000F075F840B1054800F02CF9C0B200909B
:105360000121684601F034FA08BD00000048004001
:1053700021B1828942F40052828104E082894DF693
:10538000FF731A408281704710B50446204884425A
:1053900009D101218803FFF7CFFD00214FF48040A0
:1053A000FFF7CAFD32E01B48844209D101214804BD
:1053B000FFF7A2FD00214FF40030FFF79DFD25E02F
:1053C0001548844209D101218804FFF795FD002189
:1053D0004FF48020FFF790FD18E01048844209D177
:1053E0000121C804FFF788FD00214FF40020FFF7DA
:1053F00083FD0BE00A48844208D101210805FFF72C
:105400007BFD00214FF48010FFF776FD10BD0000FA
:10541000003801400044004000480040004C00407B
:105420000050004002460020B1F5007F00D100BFCF
:1054300013880B400BB1012000E00020704770B5CD
:105440000246002400230025002040F66A16B142DF
:1054500000D100BFC1F3421501F01F03012606FA77
:1054600003F3012D02D19689334006E0022D02D1CB
:10547000168A334001E0968A33400C12012606FA60
:1054800004F41688344013B10CB1012000E0002070
:1054900070BDF0B50346002400260025002040F62C
:1054A0006A17B94200D100BF1846C1F3421401F097
:1054B0001F06012707FA06F5012C01D10C3004E084
:1054C000022C01D1103000E014301AB107682F43CC
:1054D000076002E00768AF430760F0BD2DE9F047C1
:1054E00086B005460E460024A24600BFA14600270E
:1054F000B08900B100BF2F462C8A4CF6FF700440E3
:10550000F08804432C82AC894EF6F3100440B08836
:1055100031890843718908430443AC81AC8A4FF652
:10552000FF400440B0890443AC8201A8FFF714FD9A
:105530001F48874202D1DDF810A001E0DDF80CA081
:10554000A88900F4004040B10AEBCA0000EB0A1041
:1055500031684900B0FBF1F807E00AEBCA0000EB44
:105560000A1031688900B0FBF1F86420B8FBF0F054
:1055700004012009642101FB1089A88900F400407E
:1055800040B1322000EBC900B0FBF1F000F00700A1
:10559000044308E0322000EB09106421B0FBF1F075
:1055A00000F00F0004432C8106B0BDE8F087000036
:1055B0000038014001468888C0F308007047C1F3F5
:1055C00008028280704700BFFEE730380A2801D207
:1055D000012070470020704700BF704710B56FF082
:1055E0000400FFF799FD0A4800680A49B0FBF1F092
:1055F000094908700846007800EB4001C1EBC01073
:105600004FF6FF7101EAC0000449088010BD000098
:105610000C00002000127A00200000202200002050
:105620000146114A12884A434FF0E0235A61002292
:105630009A611A46126942F001021A6100BF4FF0E6
:10564000E022106900F001021AB100F48032002A51
:10565000F5D04FF0E022126922F001024FF0E02372
:105660001A6100229A617047220000200146114A07
:1056700012784A434FF0E0235A6100229A611A4699
:10568000126942F001021A6100BF4FF0E022106976
:1056900000F001021AB100F48032002AF5D04FF078
:1056A000E022126922F001024FF0E0231A61002289
:1056B0009A6170472000002000BF054A128802F05E
:1056C0004002002AF9D0C2B2014B1B1D1A8070475C
:1056D0000038014070B504460D46002604B12DB9CE
:1056E00008A0FAF79FFD4FF0FF3070BD0A22214657
:1056F0002846FAF7F7FE18B10CA0FAF793FD012639
:105700003046F2E767697A436865636B5265706F8C
:105710007274204572726F72202C20496C6C656720
:10572000616C20506172616D0A00000076616C75D9
:105730006564617461204368616E6765640A000096
:1057400070B505460C4616460DB104B12EB90DA034
:10575000FAF768FD4FF0FF3070BD287800F00100C7
:1057600070B110212278601C81542078401C207078
:1057700055F8010F30606868706028896D1E3081AF
:105780000020E9E767697A44617461506F696E745B
:10579000324576656E74204572726F72202C2049F6
:1057A0006C6C6567616C20506172616D0A0000006D
:1057B00070B504460D4604B12DB907A0FAF732FDC5
:1057C0004FF0FF3070BD20682860606868602089F5
:1057D00028810020F6E7000067697A44617461500F
:1057E0006F696E7473325265706F72744461746164
:1057F000204572726F72202C20496C6C6567616C59
:1058000020506172616D0A0010B504461D492046A2
:10581000FFF760FF012815D11BA0FAF703FD194916
:105820000A312046FFF7C4FF28B90A2215490A3178
:10583000042001F009F813482168016061684160A3
:105840002189018100F048F81549B0FBF1F201FB14
:105850001200A8B913A0FAF7E5FC0A490A3120465C
:10586000FFF7A6FF28B90A2206490A31042000F0F2
:10587000EBFF044821680160616841602189018172
:1058800010BD0000DC0B00206368616E6765642C4E
:10589000207265706F727420646174610A00000088
:1058A000C0270900496E666F3A20363030532072A7
:1058B00065706F727420646174610A0001460806A5
:1058C00001F47F4240EA022001F47F0240EA122004
:1058D00040EA11607047000001480068704700000E
:1058E0004400002010B5174890F87607012828D109
:1058F000144890F8750702281EDAFFF7EDFF1149EA
:10590000D1F82F1B401AB0F5FA6F1AD9FFF7E4FF50
:1059100004460C4890F87537D0F82F2B21460AA082
:10592000FAF780FC00F084FE064890F87507401CEA
:10593000044981F8750704E040F2BE310C48FAF7DB
:1059400074FE10BD690000205761726E696E673A7F
:1059500067697A50726F746F636F6C526573656EAE
:1059600064446174612025642025642025640A0054
:10597000DE0700203EB50446002524B913A0FAF73F
:1059800051FC681E3EBD20680090606801909DF843
:105990000400401CC0B28DF80400052000F090F80F
:1059A000ADF802000921684600F084FE8DF8080079
:1059B0000921684601F0E2FD0546002D03DA29467B
:1059C0000DA0FAF72FFC2846DCE700004552524FA5
:1059D000523A2067697A50726F746F636F6C436FCD
:1059E0006D6D6F6E41636B2064617461206973201B
:1059F000656D707479200A004552524F523A2075F5
:105A0000617274207772697465206572726F72209A
:105A10002564200A00000000FEB504460E4600255D
:105A200024B914A0FAF7FEFB681EFEBD684600F01C
:105A3000E7F912208DF8040060798DF80500062042
:105A400000F03EF8ADF802008DF808600A216846C3
:105A500000F030FE8DF809000A21684601F08EFD45
:105A60000546002D03DA29460DA0FAF7DBFB284690
:105A7000DBE7000067697A50726F746F636F6C4583
:105A800072726F72436D64204572726F72202C20A7
:105A9000496C6C6567616C20506172616D0A000031
:105AA0004552524F523A2075617274207772697470
:105AB00065206572726F72202564200A0000000064
:105AC00001B581B0694601AA507808701078487015
:105AD000BDF800000CBD000030B59DB004460025A7
