:020000040800F2
:10000000C0250020D5010008D90900088108000892
:10001000D509000827070008731300080000000036
:10002000000000000000000000000000B90B000804
:100030002B07000800000000610A0008CD0C000832
:10004000EF010008EF010008EF010008EF010008D0
:10005000EF010008EF010008EF010008EF010008C0
:10006000EF010008EF010008EF010008EF010008B0
:10007000EF010008EF010008EF010008EF010008A0
:10008000EF010008EF010008EF010008EF01000890
:10009000EF010008EF010008EF010008EF01000880
:1000A000EF010008EF010008EF010008EF01000870
:1000B000EF010008310D0008EF010008EF01000812
:1000C000EF010008EF010008EF010008EF01000850
:1000D000EF010008C9100008EF010008F510000842
:1000E000EF010008EF010008EF010008EF01000830
:1000F000EF010008EF010008EF010008EF01000820
:10010000EF010008EF010008EF010008EF0100080F
:10011000EF010008EF010008EF010008EF010008FF
:10012000EF010008EF010008EF010008EF010008EF
:1001300000F002F800F03FF80AA090E8000C8244BA
:100140008344AAF10107DA4501D100F034F8AFF297
:10015000090EBAE80F0013F0010F18BFFB1A43F0A5
:10016000010318470035000020350000103A24BF75
:1001700078C878C1FAD8520724BF30C830C144BF0C
:1001800004680C607047000000230024002500264E
:10019000103A28BF78C1FBD8520728BF30C148BFEA
:1001A0000B607047642900F06B80002070471FB51A
:1001B0001FBD10B510BD00F08BFA1146FFF7F7FF19
:1001C00002F02EFF00F0A9FA03B4FFF7F2FF03BC20
:1001D00001F0D8F80948804709480047FEE7FEE7E4
:1001E000FEE7FEE7FEE7FEE7FEE7FEE7FEE7FEE7E7
:1001F00004480549054A064B70470000D10C000829
:1002000031010008C0130020C0250020C0150020C7
:10021000C0150020704700000FB4044910B503AAB0
:10022000029800F023FA10BC5DF814FB24000020B3
:1002300070B5044685690068C10601D5302600E026
:100240002026C00707D070BDD4E901213046904771
:10025000206A401C20626D1EF6D570BD70B5044644
:1002600085690078C00707D170BDD4E9012120203D
:100270009047206A401C20626D1EF6D570BD0000BC
:100280002DE9F0410646002410687529314616A56F
:1002900010D0AFF30080002802DA404213A507E037
:1002A00031688A0701D512A502E0490704D511A5D6
:1002B000012401E0AFF3008000210A2206F12407A7
:1002C00009E0B0FBF2FCB0FBF2F302FB1C003030A3
:1002D00078541846491C0028F3D123462A46304654
:1002E000BDE8F04100F068B9000000002D000000FA
:1002F0002B000000200000002DE9F05F8946044635
:100300004FF0000ADFF824B1FB44C0F820A02046DB
:10031000E168884700287DD0252806D0D4E901214E
:100320009047206A401C2062F1E700255F46204686
:10033000E16888472028064607DB312E05D2B81928
:1003400010F8200C08B10543F1E7A80701D525F006
:100350000405C4F81CA00027C4F818A02A2E09D050
:10036000304601F008F838B304EB8708303EC8F88F
:10037000186019E059F8041B204604EB87029161CC
:10038000E1688847012F064618D1E069002820DA85
:1003900025F020051DE0D8F8180000EB800006EBE2
:1003A00040003038C8F818002046E1688847064603
:1003B00000F0E1FF0028EED1012F0AD02E2E08D147
:1003C0002046E16888477F1C0646022F45F020053D
:1003D000C4DBA069002803DA404245F00105A061B2
:1003E000E80701D025F01005A6B1A6F141001928B3
:1003F00002D8203645F400654A463146204625603D
:100400004D46FFF7CFFE60B1012807D0ED1D25F066
:10041000070000E007E000F1080978E705F10409AA
:1004200075E730467AE7206ABDE8F09F00330000A8
:10043000032A40F2308010F0030C00F0158011F810
:10044000013BBCF1020F624498BF11F801CB00F8E8
:10045000013B38BF11F8013BA2F1040298BF00F83C
:1004600001CB38BF00F8013B11F0030300F02580F9
:10047000083AC0F0088051F8043B083A51F804CB20
:10048000A0E80810F5E7121D5CBF51F8043B40F8E6
:10049000043BAFF30080D20724BF11F8013B11F8F1
:1004A00001CB48BF11F8012B24BF00F8013B00F835
:1004B00001CB48BF00F8012B704710B5203AC0F0BF
:1004C0000B80B1E81850203AA0E81850B1E8185055
:1004D000A0E81850BFF4F5AF5FEA027C24BFB1E892
:1004E0001850A0E8185044BF18C918C0BDE8104003
:1004F0005FEA827C24BF51F8043B40F8043B08BF0C
:100500007047D20728BF31F8023B48BF11F8012BD2
:1005100028BF20F8023B48BF00F8012B70474FF07E
:1005200000020429C0F0128010F0030C00F01B80C0
:10053000CCF1040CBCF1020F18BF00F8012BA8BFCE
:1005400020F8022BA1EB0C0100F00DB85FEAC17C92
:1005500024BF00F8012B00F8012B48BF00F8012B45
:1005600070474FF0000200B5134694469646203976
:1005700022BFA0E80C50A0E80C50B1F12001BFF45C
:10058000F7AF090728BFA0E80C5048BF0CC05DF8C2
:1005900004EB890028BF40F8042B08BF704748BF10
:1005A00020F8022B11F0804F18BF00F8012B704784
:1005B00070477047704770472DE9F0470D469946E0
:1005C0009246044600F124080168880604D5E069D3
:1005D00021F01001216000E00120A84201DD471B4D
:1005E00000E00027A1697A1902EB0900081AA0614E
:1005F0002078C00602D42046FFF71AFE002608E045
:10060000D4E901211AF806009047206A401C761CA4
:1006100020624E45F4DB2078C0060AD52046FFF75D
:1006200007FE06E0D4E9012130209047206A401CF3
:100630002062381EA7F10107F4DC07E0D4E90121AC
:1006400018F805009047206A401C2062281EA5F17A
:100650000105F3DC2046FFF701FE2078000602D5F5
:100660000220BDE8F0870120FBE70000074B70B5D2
:100670000D467B4400F011F80446284600F020F8AF
:1006800010B14FF0FF3070BD204670BDA30D0000CB
:1006900001694A1C02610878704700B58FB0CDE946
:1006A00001310021059105497944CDE90310114636
:1006B0006846FFF721FE0FB000BD0000E5FFFFFF19
:1006C000007B00F0800070470048704760130020F6
:1006D0007546FFF7F9FFAE4605006946534620F020
:1006E0000700854618B020B5FFF782FDBDE8204021
:1006F0004FF000064FF000074FF000084FF0000BDE
:1007000021F00701AC46ACE8C009ACE8C009ACE890
:10071000C009ACE8C0098D4670470446AFF30080BD
:100720002046FFF751FD00BFFEE770472DE9F0417D
:10073000024600250026002000230024002791F80F
:1007400003C00CF00F0591F803C00CF0100CBCF1C5
:10075000000F03D091F802C04CEA050591F800C0E3
:10076000BCF1000F31D0146800202BE04FF0010CD9
:100770000CFA00F3B1F800C00CEA03069E4220D147
:1007800083004FF00F0C0CFA03F7BC4305FA03FC8F
:100790004CEA040491F803C0BCF1280F06D14FF0D5
:1007A000010C0CFA00FCC2F814C00AE091F803C076
:1007B000BCF1480F05D14FF0010C0CFA00FCC2F857
:1007C00010C0401C0828D1D31460B1F800C0BCF19F
:1007D000FF0F34DD546800202EE000F1080C4FF0CC
:1007E000010808FA0CF3B1F800C00CEA03069E42B7
:1007F00021D183004FF00F0C0CFA03F7BC4305FA2C
:1008000003FC4CEA040491F803C0BCF1280F05D1A5
:1008100000F1080C08FA0CF8C2F8148091F803C033
:10082000BCF1480F07D100F1080C4FF0010808FA9D
:100830000CF8C2F81080401C0828CED35460BDE8E4
:10084000F0810246002093680B400BB1012000E0CC
:10085000002070470161704710B541F61F41092023
:1008600000F076FA4FF4165002F068FE03480021BB
:100870000160416002F0A6FA10BD000000000020F7
:1008800000BFFEE708B50121442000F00BF91C2051
:10089000ADF8000048208DF8030069460648FFF7D0
:1008A00045FF0120ADF8000028208DF803006946BF
:1008B0000248FFF73BFF08BD001801400008014057
:1008C00010B5044614B101202C4908702B4800785B
:1008D000002837D010212A48FFF7B3FF78B108214C
:1008E0002748FFF7AEFF50B104212548FFF7A9FFC5
:1008F00028B101212348FFF7A4FF012822D10A20B3
:1009000000F064FD00201D49087010211C48FFF70D
:1009100098FF08B9012010BD08211948FFF791FF81
:1009200008B90220F7E704211548FFF78AFF08B944
:100930000320F0E701211348FFF783FF01281BD1B3
:100940000420E8E710210E48FFF77BFF012813D1B0
:1009500008210B48FFF775FF01280DD10421084835
:10096000FFF76FFF012807D101210648FFF769FF54
:1009700010B90120014908700020CCE73F00002099
:10098000001801400008014008B50121482000F08E
:1009900089F82020ADF8000010208DF80300032016
:1009A0008DF8020069460948FFF7C0FE202107487C
:1009B000FFF750FF2020ADF8000069460448FFF71C
:1009C000B5FE20210248FFF745FF08BD000C01409D
:1009D0000018014000BFFEE77047000070B500211D
:1009E00000230F22C47804B3154C246804F4E06497
:1009F000C4F5E064210AC1F10403CA40447804FA52
:100A000003F184781440214309010E4C0678A15566
:100A1000047804F01F050124AC4005786D11AD0089
:100A200005F1E025C5F8004109E0047804F01F0550
:100A30000124AC40044D0678761145F8264070BD7F
:100A40000CED00E000E400E080E100E00249014339
:100A5000024A1160704700000000FA050CED00E04A
:100A60007047000029B1064AD2690243044BDA619B
:100A700004E0034AD2698243014BDA617047000007
:100A80000010024029B1064A12690243044B1A6160
:100A900004E0034A12698243014B1A617047000067
:100AA0000010024029B1064A92690243044B9A6140
:100AB00004E0034A92698243014B9A617047000047
:100AC0000010024029B1064AD2680243044BDA60A2
:100AD00004E0034AD2688243014BDA6070470000A9
:100AE0000010024030B500210022002400232D4DCB
:100AF0006D6805F00C0121B1042905D0082923D126
:100B000005E0294D056022E0274D05601FE0254DD9
:100B10006D6805F47012234D6D6805F4803402256C
:100B200005EB92421CB9214D554305600BE01D4D6C
:100B30006D6805F400351DB11C4D5543056002E09C
:100B4000194D5543056002E0174D056000BF00BF19
:100B5000144D6D6805F0F0010909154D6B5C0568D1
:100B6000DD4045600F4D6D6805F4E061090A104DE8
:100B70006B5C4568DD4085600A4D6D6805F4605129
:100B8000C90A0B4D6B5C4568DD40C560054D6D685D
:100B900005F44041890B074D6B5CC568B5FBF3F567
:100BA000056130BD0010024000127A0000093D00CE
:100BB0002B0000203B000020704710B500F002F829
:100BC00010BD00000CB50020019000903348006873
:100BD00040F480303149086000BF3048006800F4BC
:100BE000003000900198401C0190009818B90198BD
:100BF000B0F5A06FF1D12948006800F4003010B1C1
:100C00000120009001E0002000900098012843D1CD
:100C10002348006840F01000214908600846006839
:100C200020F0030008600846006840F002000860F9
:100C30001A484068194948600846406848600846B4
:100C4000406840F4806048600846406820F47C10AA
:100C500048600846406840F4E8104860084600686C
:100C600040F08070086000BF0C48006800F0007021
:100C70000028F9D00948406820F00300074948607F
:100C80000846406840F00200486000BF03484068E2
:100C900000F00C000828F9D10CBD00000010024043
:100CA00000200240042808D14FF0E021096941F0FA
:100CB00004014FF0E022116107E04FF0E0210969E3
:100CC00021F004014FF0E0221161704770470000ED
:100CD00010B51348006840F001001149086008464B
:100CE0004068104908400E494860084600680E49AF
:100CF00008400B4908600846006820F4802008601E
:100D00000846406820F4FE0048604FF41F008860E9
:100D1000FFF753FF4FF000600449086010BD00006A
:100D2000001002400000FFF8FFFFF6FE08ED00E0B3
:100D300010B50121054800F0B0F828B101210348A1
:100D400000F09CF801F006FE10BD00000004004019
:100D50007FB505460C4601210220FFF783FEADF862
:100D60000850ADF804400020ADF80A00ADF80600C8
:100D700001A90E4800F056F9012211460B4800F077
:100D80009DF81D208DF8000000208DF80100032043
:100D90008DF8020001208DF803006846FFF71EFE63
:100DA0000121024800F06DF87FBD00000004004002
:100DB00030B589B005460C4601210820FFF772FEC8
:100DC00001210420FFF74EFE18208DF82300032098
:100DD0008DF822004FF48070ADF8200008A91F485C
:100DE000FFF7A4FC4FF40070ADF8200008A91B48E1
:100DF000FFF79CFCADF81850ADF814400020ADF89A
:100E00001A00ADF8160005A9154800F00BF970207E
:100E1000ADF804000120ADF806000020ADF80A008E
:100E20000220ADF80C0001A90D4800F051F801A90D
:100E30000B4800F0A7F80821094800F099F80821AC
:100E4000074800F0DDF80121054800F00BF801210A
:100E5000034800F016F809B030BD0000000C014056
:100E60000008004021B1028842F08002028004E0C4
:100E700002884FF67F731A4002807047CA4302828D
:100E8000704721B1028842F00102028004E002882A
:100E90004FF6FE731A400280704730B502460020BC
:100EA00000230024158A05EA0103958905EA010457
:100EB00013B10CB1012000E0002030BD1AB18389CC
:100EC0000B43838102E083898B4383817047000059
:100ED00070B5002400220023058C4FF6FF663540D4
:100EE0000584028C8388848B4FF68F752C404FF6D7
:100EF000FC752C400D882C434FF6FF552A400D8978
:100F00004FF6FF7606EA05252A434D8806EA0525B1
:100F10002A43154DA84202D0144DA8421DD14FF2CC
:100F2000FF752A404D894FF6FF7606EA05252A43CC
:100F30004FF6FF352A408D8806EA05252A434EF6EE
:100F4000FF752B404DF6FF752B408D8906EA051580
:100F50002B43CD8906EA05152B4383808483CD88F6
:100F60008587028470BD0000002C014000340140E0
:100F70000A460021818B4FF6F77319401143818394
:100F80007047000070B5002200230024058C4EF647
:100F9000FF7635400584038C8488828B48F6FF7584
:100FA0002A404FF6FF452A400D884FF6FF7606EAA5
:100FB00005252A434DF6FF752B400D8906EA0535B8
:100FC0002B434D8806EA05352B430B4DA84202D032
:100FD0000A4DA84208D14BF6FF752C408D894FF67B
:100FE000FF7606EA85152C4384808283CD88A0F89D
:100FF0004050038470BD0000002C014000340140CB
:101000000A460021818B4FF2FF7319404FF6FF73A0
:1010100003EA022319438183704781877047A0F850
:1010200040107047002202881D4B98420ED01D4B85
:1010300098420BD0B0F1804F08D01B4B984205D09E
:101040001A4B984202D01A4B984204D14FF68F7334
:101050001A404B881A43174B984207D0164B9842B8
:1010600004D04FF6FF431A40CB881A4302808B8886
:1010700083850B8803850A4B98420BD0094B984215
:1010800008D00E4B984205D00D4B984202D00D4B24
:10109000984201D10B7A03860123838270470000B6
:1010A000002C0140003401400004004000080040D2
:1010B000000C0040001000400014004000400140BF
:1010C000004401400048014010B540F22551064857
:1010D00000F08BF838B1044800F042F90349087079
:1010E00001200349088010BD003801402A0000207B
:1010F0002800002008B540F22551074800F075F897
:1011000040B1054800F02CF9C0B2009001216846BA
:1011100001F07CFB08BD00000048004021B182893D
:1011200042F40052828104E082894DF6FF731A4036
:101130008281704710B504462048844209D10121BC
:101140008803FFF7BFFC00214FF48040FFF7BAFC93
:1011500032E01B48844209D101214804FFF792FC88
:1011600000214FF40030FFF78DFC25E01548844244
:1011700009D101218804FFF785FC00214FF480206C
:10118000FFF780FC18E01048844209D10121C8040F
:10119000FFF778FC00214FF40020FFF773FC0BE011
:1011A0000A48844208D101210805FFF76BFC0021A1
:1011B0004FF48010FFF766FC10BD000000380140BE
:1011C0000044004000480040004C004000500040F7
:1011D00002460020B1F5007F00D100BF13880B400C
:1011E0000BB1012000E00020704770B502460024DA
:1011F00000230025002040F66A16B14200D100BF4E
:10120000C1F3421501F01F03012606FA03F3012D75
:1012100002D19689334006E0022D02D1168A33406E
:1012200001E0968A33400C12012606FA04F416886F
:10123000344013B10CB1012000E0002070BDF0B5C6
:101240000346002400260025002040F66A17B94214
:1012500000D100BF1846C1F3421401F01F06012758
:1012600007FA06F5012C01D10C3004E0022C01D163
:10127000103000E014301AB107682F43076002E015
:101280000768AF430760F0BD2DE9F04786B005461B
:101290000E460024A24600BFA1460027B08900B137
:1012A00000BF2F462C8A4CF6FF700440F0880443A0
:1012B0002C82AC894EF6F3100440B0883189084383
:1012C000718908430443AC81AC8A4FF6FF40044067
:1012D000B0890443AC8201A8FFF704FC1F48874291
:1012E00002D1DDF810A001E0DDF80CA0A88900F41F
:1012F000004040B10AEBCA0000EB0A103168490017
:10130000B0FBF1F807E00AEBCA0000EB0A10316805
:101310008900B0FBF1F86420B8FBF0F0040120096B
:10132000642101FB1089A88900F4004040B13220FB
:1013300000EBC900B0FBF1F000F00700044308E047
:10134000322000EB09106421B0FBF1F000F00F0037
:1013500004432C8106B0BDE8F0870000003801404E
:1013600001468888C0F308007047C1F308028280F4
:10137000704700BFFEE730380A2801D201207047CD
:101380000020704700BF704710B56FF00400FFF7F2
:1013900089FC0A4800680A49B0FBF1F00949087065
:1013A0000846007800EB4001C1EBC0104FF6FF711A
:1013B00001EAC0000449088010BD000008000020B8
:1013C00000127A001C0000201E0000200146114A75
:1013D00012884A434FF0E0235A6100229A611A466C
:1013E000126942F001021A6100BF4FF0E022106959
:1013F00000F001021AB100F48032002AF5D04FF05B
:10140000E022126922F001024FF0E0231A6100226B
:101410009A6170471E00002000BF054A128802F042
:101420004002002AF9D0C2B2014B1B1D1A8070473E
:1014300000380140024612B102F0070028B908291D
:1014400001D8002070470120FCE702F00700C0F13E
:101450000800884201D30020F4E70120F2E70000F1
:101460002DE9F04104460E4600250027A8462CB978
:101470000BA0FEF7D1FE681EBDE8F08100250AE052
:10148000675D701B401E14F8008004F80580701B17
:10149000401E27546D1CB5EB560FF1D30020EBE72F
:1014A00067697A427974654F7264657245786368DA
:1014B000616E6765204572726F72202C20496C6CDA
:1014C0006567616C20506172616D0A0070B50446F9
:1014D0000D46002604B12DB90BA0FEF79DFE4FF07E
:1014E000FF3070BD28782178884203D010A0FEF725
:1014F00093FE012668686168884203D012A0FEF757
:101500008BFE01263046ECE767697A436865636BBA
:101510005265706F7274204572726F72202C204970
:101520006C6C6567616C20506172616D0A0000002F
:1015300076616C7565627574746F6E204368616E58
:101540006765640A0000000076616C75656C696708
:101550006874204368616E6765640A002DE9F05F76
:1015600005460E4690461C460A9F4FF0000AD34699
:10157000D14634B91BA0FEF74FFE4FF0FF30BDE857
:10158000F09F41463046FFF755FF8146B9F1000F05
:1015900007D1605D06F0070107FA01F108436055C5
:1015A0001EE0B9F1010F1BD1F8B206F00701C1F13D
:1015B000080140FA01FA06F00700C0F10801FF2017
:1015C000084100EA070B681C205C40EA0A00691C1D
:1015D0006054605D06F007010BFA01F108436055A5
:1015E0000020CCE767697A436F6D7072657373563C
:1015F000616C7565204572726F72202C20496C6C8D
:101600006567616C20506172616D0A00F8B505462E
:101610000C4616460DB104B12EB918A0FEF7FCFD1C
:101620004FF0FF30F8BD287800F0010098B110218C
:101630002278601C81542078401C207001206B1C93
:10164000024600210090084600F068F808B1012029
:1016500000E0002030702878C0F3400060B1112114
:101660002278601C81542078401C2070AA780021C8
:10167000012001F077F970600020D3E767697A44B0
:10168000617461506F696E74324576656E74204581
:1016900072726F72202C20496C6C6567616C2050EF
:1016A0006172616D0A00000038B505460C4605B14F
:1016B0002CB90EA0FEF7B0FD4FF0FF3038BD002072
:1016C0002070287823460122002100900846FFF769
:1016D00045FF01212046FFF7C3FE002101206A6873
:1016E00001F046F960700020E8E7000067697A447D
:1016F000617461506F696E7473325265706F727489
:1017000044617461204572726F72202C20496C6CA8
:101710006567616C20506172616D0A002DE9FC5FA4
:1017200005460C46164699460C9F4FF0000AD346D4
:10173000002001908046B9F1000F00D037B92AA0EF
:10174000FEF76AFD4FF0FF30BDE8FC9F3A46494680
:101750006846FEF76DFE012F0CD939466846FFF743
:101760007FFEB0F1FF3F05D12BA0FEF755FD4FF0F6
:10177000FF30E9E731462046FFF75CFE8246BAF1CA
:10178000000F0CD11DF8050004F007010841C6F157
:101790000802FF211141084040EA080821E0BAF19F
:1017A000010F1ED1681C1DF8000004F00701C1F1F3
:1017B0000801711AC1F10802FF21114100EA010B71
:1017C0001DF8050004F007010841019004F007002E
:1017D000C0F108010BFA01F040EA0808019848EA54
:1017E00000084046B0E7000067697A4465636F6DA2
:1017F0007072657373696F6E56616C7565204572A2
:10180000726F72202C20496C6C6567616C2050618E
:1018100072616D0A0000000067697A4465636F6D4C
:101820007072657373696F6E56616C756520676958
:101830007A427974654F7264657245786368616E47
:101840006765204572726F72200A000010B5044669
:101850001C492046FFF73AFE012814D11AA0FEF7D2
:10186000DBFC184908312046FFF71EFF28B9022289
:1018700014490831042001F005F81948D4E9001290
:1018800000F67C3006C000F049F81649B0FBF1F2D2
:1018900001FB1200A0B914A0FEF7BEFC09490831F3
:1018A0002046FFF701FF28B902220649083104202B
:1018B00000F0E8FF0A48D4E9001200F67C3006C0C8
:1018C00010BD0000CC0B00206368616E6765642C5E
:1018D000207265706F727420646174610A00000088
:1018E00050000020C0270900496E666F3A2036304C
:1018F0003053207265706F727420646174610A00E5
:101900000146080601F47F4240EA022001F47F020A
:1019100040EA122040EA1160704700000148006868
:10192000704700004400002010B5174890F8790770
:10193000012828D1144890F8780702281EDAFFF70A
:10194000EDFF1149D1F8341B401AB0F5FA6F1AD9DE
:10195000FFF7E4FF04460C4890F878372146D0F8AA
:10196000342B0AA0FEF758FC00F080FE064890F8E1
:101970007807401C044981F8780704E04FF470713F
:101980000C48FEF7EEFD10BD500000205761726E4E
:10199000696E673A67697A50726F746F636F6C52E1
:1019A0006573656E6444617461202564202564203C
:1019B00025640A00C80700203EB50446002524B966
:1019C00013A0FEF729FC681E3EBD206800906068E9
:1019D00001909DF80400401CC0B28DF80400052061
:1019E00000F090F8ADF802000921684600F080FE92
:1019F0008DF808000921684601F024FD0546002DF8
:101A000003DA29460DA0FEF707FC2846DCE70000B4
:101A10004552524F523A2067697A50726F746F6321
:101A20006F6C436F6D6D6F6E41636B2064617461A9
:101A300020697320656D707479200A004552524FF9
:101A4000523A2075617274207772697465206572EC
:101A5000726F72202564200A00000000FEB5044663
:101A60000E46002524B914A0FEF7D6FB681EFEBD65
:101A7000684600F0E7F912208DF8040060798DF8CF
:101A80000500062000F03EF8ADF802008DF8086071
:101A90000A21684600F02CFE8DF809000A216846EC
:101AA00001F0D0FC0546002D03DA29460DA0FEF713
:101AB000B3FB2846DBE7000067697A50726F746FEA
:101AC000636F6C4572726F72436D64204572726F02
:101AD00072202C20496C6C6567616C2050617261CA
:101AE0006D0A00004552524F523A207561727420BF
:101AF0007772697465206572726F72202564200A9E
:101B00000000000001B581B0694601AA5078087054
:101B100010784870BDF800000CBD000030B59DB0D5
:101B2000044600252CB92BA0FEF776FB681E1DB0DD
:101B300030BD684600F086F902208DF80400607917
:101B40008DF805002FA103C9CDE9020130A103C919
:101B5000CDE9040131A103C9CDE9080132A103C9CE
:101B6000CDE90601202233A10AA8FEF7A6FC202217
:101B700039A10DF15200FEF75BFC0020CDF84A00C0
:101B8000CDF84E009DF851008DF851009DF85100A0
:101B900040F002018DF851100020FFF7B3FFADF8BF
:101BA00048006F20FFF7AEFFADF8020073216846D2
:101BB00000F09EFD8DF872007321684601F042FC32
:101BC0000546002D03DA29462CA0FEF725FB284602
:101BD000ADE7000067697A50726F746F636F6C478E
:101BE0006574446576696365496E666F20457272F7
:101BF0006F72202C20496C6C6567616C205061729B
:101C0000616D0A0030303030303030340000000078
:101C1000303030303030303200000000303330317E
:101C2000303130310000000030333031303130306D
:101C30000000000061396235373638396663356433
:101C40003434636261663062333262636332616688
:101C500063643839000000006239346366613034EF
:101C600032653431346465663934646434373762DC
:101C70003430626337643434000000004552524F00
:101C8000523A2075617274207772697465206572AA
:101C9000726F72202564200A000000002DE9FE4FBB
:101CA00080460E4617464FF0000B002002908146FA
:101CB0008246002534460090B8F1000F01D006B1ED
:101CC00037B950A0FEF7A8FA4FF0FF30BDE8FE8FFD
:101CD000404601F03DFA00F0FF0ABAF1000F02D1D0
:101CE0004FF0FF30F2E74FF000095DE0012201A95B
:101CF000404601F0B1FA8346BBF1000F52D04D4887
:101D00000078FF281FD19DF80400FF281BD14A4806
:101D1000007848B9FF202070607002204749088091
:101D200001204549087034E044480088042830DD2B
:101D300042480088A8422CD0FF202070607002200A
:101D40003E49088025E03B480078FF2803D19DF8F4
:101D5000040055281DD038480078012819D19DF875
:101D6000040036490988605434480088401C3349CF
:101D700008800846008804280BDD0094009C6088D9
:101D8000FFF7C0FE001D85B22C480088A84200D194
:101D90000CE09DF804002749087029480078401C91
:101DA0002749087009F10109D1459FDB00BF23488D
:101DB0000088042823DD21480088A8421FD11F483D
:101DC0000188204600F094FC02901C480088401EC8
:101DD000215C029881420FD12A4621463046FEF707
:101DE00027FB3D80002014490870144908801449DD
:101DF00008701049087069E76FF0010066E701207C
:101E000064E7000067697A50726F746F636F6C47A4
:101E100065744F6E655061636B6574204572726FB7
:101E200072202C20496C6C6567616C205061726176
:101E30006D0A00004C000020480000204A000020ED
:101E40004D00002010B504462CB907A0FEF7E4F9B8
:101E50004FF0FF3010BD002020606060FF20207038
:101E600060700020F6E700004552524F523A20675A
:101E7000697A50726F746F636F6C48656164496E04
:101E80006974206865616420697320656D70747978
:101E9000200A00002DE9F04786B004468846164621
:101EA0000027BA46B946254614B1B8F1000F07D14C
:101EB0002BA0FEF7B1F94FF0FF3006B0BDE8F08778
:101EC000CEB96846FFF7BEFF2079401CC0B28DF83E
:101ED000040060798DF805000520FFF713FEADF8CA
:101EE00002000921684600F003FC8DF80800EA466C
:101EF0004FF0090925E003A8FFF7A4FF2879401C4B
:101F0000C0B28DF8100068798DF81100B11D88B24B
:101F1000FFF7F8FDADF80E00287A401CC0B28DF82E
:101F20001400324641460DF11500FEF781FA0C21EE
:101F300003A800F0DDFB8DF817000DF10C0A4FF03F
:101F40000C094946504601F07DFA0746002F04DA95
:101F50004A4639460E48FEF75FF93846ADE70000BD
:101F600067697A50726F746F636F6C4973737565CC
:101F7000644461746141636B204572726F72202CFE
:101F800020496C6C6567616C20506172616D0A005C
:101F9000203600082DE9F04704460E4617461D4638
:101FA000A0464FF0000998F808900CB107B135B978
:101FB0002CA0FEF731F94FF0FF30BDE8F087132178
:101FC0003448FEF7CEFAB9F1010F06D0B9F1020F8D
:101FD00011D0B9F1050F40D11FE02E4A3C322D49F6
:101FE00004F10900FFF712FB01202B4908700027BC
:101FF0000020286032E027494C31A1F10800FFF7AA
:1020000053FB30B92448B0F8840B38800220286094
:1020100002E04FF0FF30D0E720E0A6F10A0204F121
:1020200009011E48FEF704FAA6F10A001A49C1F890
:1020300070070F21184890F8382B00F6393081547A
:10204000154890F8380B401C134981F8380B0320D1
:10205000087000270020286000E000BF00BF0020BB
:10206000ABE7000067697A50726F746F636F6C49F9
:10207000737375656450726F636573732045727214
:102080006F72202C20496C6C6567616C2050617206
:10209000616D0A00880B002050000020070400201A
:1020A00010B504462CB9D2A0FEF7B6F84FF0FF30B9
:1020B00010BD2089FFF726FD2081D9480078C0F3A4
:1020C0008000217AC1F3800188425AD0207AC0F37F
:1020D000800000282BD0207A00F0010080B1002180
:1020E000D04890F84B2B00F64C308154CD4890F8F6
:1020F0004B0B401CCB4981F84B0BCBA0FEF78CF867
:10210000207AC0F3400000283BD00121C54890F858
:102110004B2B00F64C308154C24890F84B0B401CBE
:10212000C04981F84B0BC8A0FEF776F829E0207A69
:1021300000F0010080B10021BA4890F84B2B00F666
:102140004C308154B74890F84B0B401CB54981F88E
:102150004B0BB5A0FEF760F8207AC0F3400080B1C9
:102160000221B04890F84B2B00F64C308154AD481A
:1021700090F84B0B401CAB4981F84B0BB9A0FEF714
:102180004BF8A7480078C0F3C000217AC1F3C00122
:1021900088422ED0207AC108A148008861F3C3008C
:1021A0009F490880207AC0F3C00088B103219D4870
:1021B00090F84B2B00F64C3081549A4890F84B0B1A
:1021C000401C984981F84B0BADA0FEF725F810E0B4
:1021D0000421944890F84B2B00F64C3081549148E0
:1021E00090F84B0B401C8F4981F84B0BACA0FEF7CD
:1021F00013F88B480078C0F30010217AC1F3001166
:1022000088422ED0207A01098548008861F30410A5
:1022100083490880207AC0F3001088B105218148E5
:1022200090F84B2B00F64C3081547E4890F84B0BC5
:10223000401C7C4981F84B0BA1A0FDF7EDFF10E09D
:102240000621784890F84B2B00F64C3081547548A5
:1022500090F84B0B401C734981F84B0BA0A0FDF785
:10226000DBFF6F480078C0F34010217AC1F34011C2
:1022700088422ED0207A41096948008861F34510D0
:1022800067490880207AC0F3401088B1072165486B
:1022900090F84B2B00F64C308154624890F84B0B71
:1022A000401C604981F84B0B96A0FDF7B5FF10E08C
:1022B00008215C4890F84B2B00F64C30815459486B
:1022C00090F84B0B401C574981F84B0B94A0FDF73D
:1022D000A3FF53480088C0F3C0202189C1F3C02167
:1022E00088422ED02089C10A4D48008861F3CB2056
:1022F0004B4908802089C0F3C02088B10B21494890
:1023000090F84B2B00F64C308154464890F84B0B1C
:10231000401C444981F84B0B89A0FDF77DFF10E07C
:102320000C21404890F84B2B00F64C3081543D482E
:1023300090F84B0B401C3B4981F84B0B87A0FDF7F5
:102340006BFF37480088C0F300302189C1F30031AA
:1023500088422ED02089010B3148008861F30C306F
:102360002F4908802089C0F3003088B109212D4809
:1023700090F84B2B00F64C3081542A4890F84B0BC8
:10238000401C284981F84B0B7CA0FDF745FF10E06D
:102390000A21244890F84B2B00F64C3081542148F8
:1023A00090F84B0B401C1F4981F84B0B7AA0FDF7AE
:1023B00033FF0D211B4890F84B2B00F64C30815415
:1023C000184890F84B0B401C164981F84B0B20899C
:1023D000C0F3022081F8860B084690F8861B75A092
:1023E000FDF71AFF02200F490870002060E6000088
:1023F00067697A50726F746F636F6C4D6F64756C40
:1024000065537461747573204572726F72202C204D
:10241000496C6C6567616C20506172616D0A0000E7
:102420004E000020500000204F6E426F61726469C0
:102430006E673A20536F66744150206F7220576563
:1024400062206D6F64650A004F6E426F617264694D
:102450006E673A204169724C696E6B206D6F6465DE
:102460000A0000004F6E426F617264696E673A2025
:1024700053746174696F6E206D6F64650A000000AB
:1024800057694669207374617475733A20696E20C8
:1024900062696E64696E67206D6F64650A00000092
:1024A00057694669207374617475733A206F757447
:1024B0002062696E64696E67206D6F64650A000052
:1024C00057694669207374617475733A20636F6E3F
:1024D0006E656374656420726F757465720A0000BE
:1024E00057694669207374617475733A206469731F
:1024F000636F6E6E656374656420726F7574657268
:102500000A00000057694669207374617475733A54
:1025100020636F6E6E6563746564206D326D0A00B2
:1025200057694669207374617475733A20646973DE
:10253000636F6E6E6563746564206D326D0A0000B2
:1025400057694669207374617475733A20617070BD
:1025500020636F6E6E6563740A00000057694669F8
:10256000207374617475733A206E6F2061707020EF
:10257000636F6E6E6563740A0000000057694669F8
:10258000207374617475733A20696E207465737476
:10259000206D6F64650A0000576946692073746195
:1025A0007475733A206F75742074657374206D6F41
:1025B00064650A0052535349206973202564200A38
:1025C0000000000070B5044625462CB918A0FDF7A0
:1025D00023FE4FF0FF3070BD1B48A9680160E96819
:1025E0004160298A0181A97C8172A0F68731B1F806
:1025F000870BFFF787FA1549A1F8870BD1F88E0BE7
:10260000FFF77EF91149C1F88E0B0E210F4890F8A3
:102610005E2B00F65F3081540C4890F85E0B401C36
:102620000A4981F85E0B042008700020D3E70000FF
:102630004552524F523A204E545020697320656DD6
:10264000707479200A000000D70B00205000002091
:1026500010B5FFF763F9044600BFFFF75FF9001BF1
:10266000B0F5167FF9D900F05BFD10BD10B5002460
:102670000F4890F8790700B910BD0EA0FDF7CCFD0A
:102680000B48B0F8301B00F27A7000F0DBFE044615
:102690000748B0F8300BA04202D00EA0FDF7BCFDF9
:1026A000FFF73CF90249C1F8340B00BFE4E7000032
:1026B000500000205761726E696E673A2074696D30
:1026C000656F75742C20726573656E642064617427
:1026D00061200A004552524F523A20726573656E6E
:1026E000642064617461206572726F720A00000078
:1026F0002DE9F04104460D460027002604B135B906
:10270000294608A0FDF788FD0020BDE8F0810226DB
:1027100003E0A05D3844C7B2761C681EB042F8D80A
:102720003846F2E74552524F523A2067697A507262
:102730006F746F636F6C53756D202C20627566200B
:10274000697320656D707479206F72206C656E20DE
:102750006572726F72202564200A000070B504460D
:102760000D462CB90EA0FDF757FD4FF0FF3070BDA0
:102770004FF470711048FDF7F4FE2A4621460E48CA
:10278000801CFDF755FE0D48A0F8305B012180F854
:102790007917FFF7C3F80949C1F8340B0020E6E7C1
:1027A0004552524F523A206461746120697320652A
:1027B0006D707479200A0000C807002050000020C6
:1027C00070B504460A4D2CB90AA0FDF725FD4FF05F
:1027D000FF3070BD2879401C2179884205D14FF423
:1027E00070710348801EFDF7BCFE0020F1E7000079
:1027F000CA0700204552524F523A2064617461204A
:10280000697320656D707479200A000070B5044604
:102810000D46002624B90AA0FDF7FEFC701E70BD0F
:102820002A4621460F4800F08BFD0646AE4205D0F1
:102830000DA0FDF7F1FC4FF0FF30F0E73046EEE77A
:102840004552524F523A2067697A50757444617408
:10285000612062756620697320656D707479200A45
:1028600000000000E40B00204552524F523A20462F
:1028700061696C656420746F207262577269746557
:10288000200A0000FEB505460E461746002426B96C
:102890001DA0FDF7C1FC601EFEBD6846FFF7D2FA21
:1028A00005208DF80400224890F87417D0F87407BA
:1028B000401C1F4AC2F87407C8B28DF805008DF895
:1028C00008500820FFF71EF9ADF802003A463146DD
:1028D0000DF10900FDF7ACFD0C216846FFF708FF7C
:1028E0008DF80B000C21684600F0ACFD0446002C6E
:1028F00003DA21460FA0FDF78FFC0C216846FFF795
:102900002DFF2046C8E7000067697A5265706F7234
:102910007444617461204572726F72202C20496C7E
:102920006C6567616C20506172616D0A0000000087
:10293000500000204552524F523A20756172742067
:102940007772697465206572726F72202564200A3F
:102950000000000002480068401C01490860704700
:102960004400002010B50346002002FB031010BDF8
:1029700010B503460020541AB4FBF3F010BD00005C
:102980002DE9FF4706460D4692464FF000082F46B8
:10299000A9462C4606B125B94FF0FF3004B0BDE87A
:1029A000F0874FF0000877E0701C10F8080012283C
:1029B0006CD2DFE800F04A4B4C6B6B4D4E4F506BC6
:1029C0006B6B6B515B570931387836490870084694
:1029D000017835A0FDF720FC32480078012809D1A4
:1029E0000020374908603749C1F894010120364971
:1029F000087010E00120324908603249C1F89401A2
:102A000000203149087000213048FEF706FB002104
:102A10002E48FEF704FB3AE02249786848600846F1
:102A200041682BA0FDF7F8FB2748007801280BD15F
:102A30001C48808881B22548FEF7EFFA1948808843
:102A400081B22248FEF7EBFA21E020E01FE01EE011
:102A50001DE01CE01BE01AE099F8001021A0FDF732
:102A6000DBFB14E022A0FDF7D7FB10E0D4F8070051
:102A7000A17962792379CDE90032CDE90210E378BA
:102A8000A27821881FA0FDF7C7FB00E000BF00BFB0
:102A900008F1010000F0FF083078404584DC002098
:102AA0007CE70000000000204576743A204556453A
:102AB0004E545F627574746F6E202564200A0000A6
:102AC0009401234200802142400000200008004081
:102AD0004576743A4556454E545F6C696768742074
:102AE00025640A00525353492025640A000000005F
:102AF0005452414E53504152454E545F444154410B
:102B0000200A0000574946495F4E5450203A205B46
:102B100025642D25642D256420253032643A253026
:102B200032643A253032645D5B25645D200A000022
:102B300070B5ADF5EF6D04460025002002900190C0
:102B4000002634B96DA0FDF767FB681E0DF5EF6D2B
:102B500070BDFEF7E9FE02AA72497348FFF79EF8BE
:102B60000546002D6BD171A0FDF756FB6D4E3079F7
:102B70000D2832D00EDC07282BD006DC012816D019
:102B8000032818D0062851D12EE00A282DD00C2871
:102B90004CD12BE0142838D004DC0F282BD011287E
:102BA00044D131E0162822D018283FD134E03046F5
:102BB000FEF7B4FF42E001AB03AABDF80810594884
:102BC000FFF7E8F920B903A93046019AFFF762F947
:102BD00034E03046FEF7F0FE30E03046FEF7ECFE23
:102BE0003046FFF75DFA29E000BF00BF00BF304666
:102BF000FFF7E6FD22E03046FEF7DEFE50A0FDF7CF
:102C00000BFBFFF725FD19E018E03046FFF7D8FD74
:102C100050A0FDF701FB11E03046FFF7D1FD304633
:102C2000FFF7D0FC53A0FDF7F7FA07E0022130468A
:102C3000FEF714FF55A0FDF7EFFA00BF0DE015F108
:102C4000020F0AD1374E01213046FEF707FF55A08B
:102C5000FDF7E2FA6FF0010078E73248401E007895
:102C6000012806D0022814D0032823D004283FD1FD
:102C70002DE000202B49491E0870082201F674310E
:102C8000A1F13C00FFF77CFE13214D48FDF769FCE4
:102C90002EE000202349491E0870012201F68631EA
:102CA000A1F13B00FFF76CFE132145481330FDF7FF
:102CB00036FC1DE000201B49491E0870084600F242
:102CC000B731D0F870273E48FFF75AFE10E00020D9
:102CD0001449491E08700B2201F68731A1F1290021
:102CE000FFF74EFE132136482630FDF718FC00BFD3
:102CF00000BF2046FEF7AAFD002027E747697A7744
:102D000069747348616E646C65204572726F7220DD
:102D10002C20496C6C6567616C20506172616D0A92
:102D20000000000051000020E40B002047657420E3
:102D30004F6E65205061636B6574210A00000000CE
:102D40007265706F72743A4D4355207265626F6F91
:102D500074210A0041636B2050524F44554354493B
:102D60004F4E5F4D4F444520737563636573732009
:102D70000A00000041636B204745545F55545420BE
:102D800073756363657373200A0000004552524FE8
:102D9000523A20636D6420636F6465206572726FC0
:102DA00072210A004552524F523A20636865636BA4
:102DB0002073756D206572726F72210A0000000029
:102DC000880B002010B540F26C7006490860064878
:102DD000C860084600F024FA40F694310348FDF735
:102DE000C0FB10BDE40B0020F40B002050000020BD
:102DF00030B587B005460024052D7CD2DFE805F00C
:102E000003305F90BD0001A8FFF71CF80B208DF880
:102E10000800744890F87417D0F87407401C714A81
:102E2000C2F87407C8B28DF809000520FEF76AFEE3
:102E3000ADF80600092101A8FFF75AFC8DF80C0037
:102E4000092101A800F0FEFA0446002C03DA21460D
:102E500065A0FDF7E1F9092101A8FFF77FFCBDE0BE
:102E600004A8FEF7EFFF09208DF814005D4890F8E4
:102E70007417D0F87407401C5A4AC2F87407C8B2D5
:102E80008DF815008DF818500620FEF73BFEADF8C2
:102E900012000A2104A8FFF72BFC8DF819000A2163
:102EA00004A800F0CFFA0446002C03DA21464EA015
:102EB000FDF7B2F90A2104A8FFF750FC8EE004A840
:102EC000FEF7C0FF09208DF81400464890F87417EB
:102ED000D0F87407401C434AC2F87407C8B28DF892
:102EE00015008DF818500620FEF70CFEADF8120004
:102EF0000A2104A800E06DE0FFF7FAFB8DF8190045
:102F00000A2104A800F09EFA0446002C03DA2146A8
:102F100035A0FDF781F90A2104A8FFF71FFC5DE049
:102F200001A8FEF78FFF13208DF808002D4890F8B8
:102F30007417D0F87407401C2A4AC2F87407C8B244
:102F40008DF809000520FEF7DDFDADF8060009212A
:102F500001A8FFF7CDFB8DF80C00092101A800F0B6
:102F600071FA0446002C03DA21461FA0FDF754F93C
:102F7000092101A8FFF7F2FB30E001A8FEF762FF8C
:102F800015208DF80800174890F87417D0F87407CA
:102F9000401C144AC2F87407C8B28DF80900052015
:102FA000FEF7B0FDADF80600092101A8FFF7A0FB70
:102FB0008DF80C00092101A800F044FA0446002C09
:102FC00003DA214608A0FDF727F9092101A8FFF738
:102FD000C5FB03E00CA0FDF71FF900BF00BF2046B2
:102FE00007B030BD500000204552524F523A207574
:102FF000617274207772697465206572726F7220D5
:103000002564200A000000004552524F523A2043E6
:1030100066674D6F6465206572726F72210A0000E9
:10302000FEF7B2F94FF4A060FDF710FD4FF4165013
:1030300000F034FA00214FF48070FDF7B9FEFDF77F
:10304000A3FCFDF71FFCFDF707FC10A0FDF7E4F85B
:103050001AA0FDF7E1F818E000F0C8FA2148FFF7E0
:1030600067FD0020FDF72CFC0446022C05D11EA0B4
:10307000FDF7D2F80220FFF7BBFE042C05D121A0FA
:10308000FDF7CAF80020FFF7B3FEE5E72D2D2D2D43
:103090002D2D2D2DBBFAD6C7D4C62DD0ADD2E9D259
:1030A000C6D6B24C4544B2E2CAD4CAB5D1E92D2D38
:1030B0002D2D2D2D2D2D2D2D0D0A00004B45593177
:1030C0003A4169724C696E6BC1ACBDD3C4A3CABD31
:1030D00009204B45595F55503AB8B4CEBB0D0A0D87
:1030E0000A0000000000002057494649BDF8C8EB1F
:1030F0004169724C696E6BC1ACBDD3C4A3CABD0D2E
:103100000A00000057494649B8B4CEBBA3ACC7EB90
:10311000D6D8D0C2C5E4D6C3C1ACBDD30D0A000019
:10312000012080F3138800BF00BF0748006800F447
:10313000E06006490843001D03490860BFF3408F63
:1031400000BF00BFFEE700000CED00E00000FA0544
:1031500010B504462CB90EA0FDF75EF84FF0FF3015
:1031600010BD6068A168884201D10020F8E760685E
:10317000A168884203D2A0686168401AF0E720463F
:1031800000F034F86168A268891A401AE8E7000084
:103190004552524F523A20696E7075742072622007
:1031A0006973204E554C4C0A0000000070B504466F
:1031B0002CB907A0FDF730F84FF0FF3070BD204666
:1031C00000F014F805462046FFF7C2FF281AF5E77D
:1031D0004552524F523A20696E70757420726220C7
:1031E0006973204E554C4C0A0000000010B504468F
:1031F0002CB904A0FDF710F84FF0FF3010BD206887
:10320000FCE700004552524F523A20696E707574C7
:10321000207262206973204E554C4C0A0000000059
:1032200010B504461CB905A0FCF7F6FF10BDE06818
:103230006060E068A06000BFF8E700004552524FB0
:10324000523A20696E707574207262206973204E44
:10325000554C4C0A000000002DE9F04104460F4691
:10326000164600252CB928A0FCF7D6FF681EBDE83D
:10327000F0812FB92BA0FCF7CFFF4FF0FF30F6E71E
:103280006068A168884214D22046FFF761FFB0420F
:1032900001D9304602E02046FFF75AFF0546616833
:1032A0002A463846FDF7C4F860682844606028461E
:1032B000DDE72046FFF79AFF6168E268891A401A45
:1032C000B0420AD9354661682A463846FDF7B0F85B
:1032D0006068284460602846C9E72046FFF786FFFB
:1032E0006168E268891A451A61682A463846FDF71E
:1032F0009FF8E0686060721B79192046FFF7ACFF09
:1033000005442846B3E700004552524F523A20691F
:103310006E707574207262206973204E554C4C0A91
:10332000000000004552524F523A20696E70757489
:103330002064617461206973204E554C4C0A000072
:103340002DE9F04104460F46154600262CB92BA066
:10335000FCF762FF701EBDE8F0812FB92DA0FCF7CD
:103360005BFF4FF0FF30F6E72046FFF71FFFA84254
:103370000AD82046FFF71AFF804641462BA0FCF7EB
:103380004BFF4FF0FF30E6E76068A16888422AD81B
:103390002046FFF72BFFA168E268891A461AB5425A
:1033A00013D8A0682A463946FDF742F8A068284499
:1033B000A0602046FFF71AFFE1680844A168884230
:1033C00001D1E068A0602846C5E7A06832463946CA
:1033D000FDF72EF8E068A060AA1BB9192046FFF798
:1033E000AFFF3044B7E7A0682A463946FDF720F81A
:1033F000A0682844A0602846ADE700004552524F1F
:10340000523A20726220697320656D707479200AC7
:10341000000000004552524F523A2064617461200E
:10342000697320656D707479200A00004552524F0F
:10343000523A206E6F206D656D6F72792025642081
:103440000A00000070B505460E4600240DB9601E46
:1034500070BD00241BE0295D0F48FDF786FF00BF0B
:1034600040210D48FDF7B4FE0028F9D0022C0DD301
:10347000285DFF280AD155210748FDF776FF00BFD8
:1034800040210548FDF7A4FE0028F9D0641CB44291
:10349000E1D33046DCE700000048004010B586B0BC
:1034A0000446012144F20400FDF7FCFA4FF40070D9
:1034B000ADF8140003208DF8160018208DF81700C1
:1034C00005A91C48FDF732F94FF48060ADF81400EF
:1034D00004208DF8170005A91648FDF727F92520C7
:1034E0008DF8000003208DF801008DF80200012006
:1034F0008DF803006846FDF771FA01940020ADF8DD
:103500000800ADF80A00ADF80C00ADF810000C2072
:10351000ADF80E0001A90848FDF7B6FE012240F201
:1035200025510548FDF78BFE01210348FDF7F6FD07
:1035300006B010BD000801400038014010B586B04B
:10354000044601210820FDF7ADFA01218804FDF7AA
:1035500089FA2448FDF7EEFD4FF48060ADF81000C5
:1035600003208DF8120018208DF8130004A91E48BE
:10357000FDF7DCF84FF40060ADF8100004208DF882
:10358000130004A91848FDF7D1F800940020ADF805
:103590000400ADF80600ADF80800ADF80C000C20F2
:1035A000ADF80A0069460F48FDF76EFE01210D488F
:1035B000FDF7B4FD012240F225510A48FDF73FFE18
:1035C00027208DF8140002208DF8150003208DF8B7
:1035D000160001208DF8170005A8FDF7FFF906B0C9
:1035E00010BD000000480040000C01400548006884
:1035F00018B901200449087002E00020024908704F
:1036000070470000940123420000002004000008DD
:103610000000000000000002000100001000000097
:103620004552524F523A2067697A50726F746F63F5
:103630006F6C4973737565644461746141636B2099
:1036400075617274207772697465206572726F7229
:1036500020256420646174614C656E202564200A15
:103660000000000084360008000000205000000028
:103670006C010008D43600085000002070250000BE
:1036800088010008000000000000000000A24A04B9
:103690000000000000000000010203040607080902
:1036A000000000000000000000000000000000001A
:1036B00000000001020304010203040607080902D6
:1036C00004060801000000000000000000000000E7
:0436D00000000000F6
:04000005080001D519
:00000001FF
